{
  "_format": "hh-sol-artifact-1",
  "contractName": "TheOpenSimulation",
  "sourceName": "contracts/OpenSimulation.sol",
  "abi": [
    {
      "inputs": [],
      "stateMutability": "nonpayable",
      "type": "constructor"
    },
    {
      "inputs": [
        {
          "internalType": "uint8",
          "name": "_energy",
          "type": "uint8"
        },
        {
          "internalType": "uint8",
          "name": "_fun",
          "type": "uint8"
        },
        {
          "internalType": "uint8",
          "name": "_hygene",
          "type": "uint8"
        },
        {
          "internalType": "uint8",
          "name": "_protein",
          "type": "uint8"
        }
      ],
      "name": "addPlayerEnergy",
      "outputs": [],
      "stateMutability": "nonpayable",
      "type": "function"
    },
    {
      "inputs": [],
      "name": "collectiveThoughtIndex",
      "outputs": [
        {
          "internalType": "uint256",
          "name": "",
          "type": "uint256"
        }
      ],
      "stateMutability": "view",
      "type": "function"
    },
    {
      "inputs": [
        {
          "internalType": "address",
          "name": "_ref",
          "type": "address"
        },
        {
          "internalType": "string",
          "name": "_name",
          "type": "string"
        }
      ],
      "name": "createPlayer",
      "outputs": [],
      "stateMutability": "nonpayable",
      "type": "function"
    },
    {
      "inputs": [
        {
          "internalType": "uint256",
          "name": "randomValue",
          "type": "uint256"
        },
        {
          "internalType": "uint256",
          "name": "n",
          "type": "uint256"
        }
      ],
      "name": "expand",
      "outputs": [
        {
          "internalType": "uint256[]",
          "name": "expandedValues",
          "type": "uint256[]"
        }
      ],
      "stateMutability": "pure",
      "type": "function"
    },
    {
      "inputs": [
        {
          "internalType": "uint256",
          "name": "_memIndex",
          "type": "uint256"
        }
      ],
      "name": "fufillWish",
      "outputs": [],
      "stateMutability": "nonpayable",
      "type": "function"
    },
    {
      "inputs": [],
      "name": "getMyLegacy",
      "outputs": [
        {
          "components": [
            {
              "internalType": "uint256",
              "name": "id",
              "type": "uint256"
            },
            {
              "internalType": "string",
              "name": "title",
              "type": "string"
            },
            {
              "internalType": "uint256",
              "name": "birthunix",
              "type": "uint256"
            },
            {
              "internalType": "enum TheOpenSimulation.ThoughtCategory",
              "name": "thoughtCat",
              "type": "uint8"
            },
            {
              "internalType": "uint256",
              "name": "thoughtIndex",
              "type": "uint256"
            },
            {
              "internalType": "uint8",
              "name": "isStatusStateDependant",
              "type": "uint8"
            },
            {
              "internalType": "bool",
              "name": "isWish",
              "type": "bool"
            },
            {
              "internalType": "uint256[3]",
              "name": "goalPos",
              "type": "uint256[3]"
            },
            {
              "internalType": "uint256[3]",
              "name": "goalRot",
              "type": "uint256[3]"
            },
            {
              "internalType": "uint256[3]",
              "name": "goalSca",
              "type": "uint256[3]"
            }
          ],
          "internalType": "struct TheOpenSimulation.Memori[]",
          "name": "",
          "type": "tuple[]"
        }
      ],
      "stateMutability": "view",
      "type": "function"
    },
    {
      "inputs": [
        {
          "internalType": "uint256",
          "name": "_memIndex",
          "type": "uint256"
        }
      ],
      "name": "getMyMemory",
      "outputs": [
        {
          "components": [
            {
              "internalType": "uint256",
              "name": "id",
              "type": "uint256"
            },
            {
              "internalType": "string",
              "name": "title",
              "type": "string"
            },
            {
              "internalType": "uint256",
              "name": "birthunix",
              "type": "uint256"
            },
            {
              "internalType": "enum TheOpenSimulation.ThoughtCategory",
              "name": "thoughtCat",
              "type": "uint8"
            },
            {
              "internalType": "uint256",
              "name": "thoughtIndex",
              "type": "uint256"
            },
            {
              "internalType": "uint8",
              "name": "isStatusStateDependant",
              "type": "uint8"
            },
            {
              "internalType": "bool",
              "name": "isWish",
              "type": "bool"
            },
            {
              "internalType": "uint256[3]",
              "name": "goalPos",
              "type": "uint256[3]"
            },
            {
              "internalType": "uint256[3]",
              "name": "goalRot",
              "type": "uint256[3]"
            },
            {
              "internalType": "uint256[3]",
              "name": "goalSca",
              "type": "uint256[3]"
            }
          ],
          "internalType": "struct TheOpenSimulation.Memori",
          "name": "",
          "type": "tuple"
        }
      ],
      "stateMutability": "view",
      "type": "function"
    },
    {
      "inputs": [
        {
          "internalType": "address",
          "name": "",
          "type": "address"
        }
      ],
      "name": "players",
      "outputs": [
        {
          "internalType": "string",
          "name": "URI",
          "type": "string"
        },
        {
          "internalType": "string",
          "name": "name",
          "type": "string"
        },
        {
          "internalType": "uint256",
          "name": "birthunix",
          "type": "uint256"
        },
        {
          "internalType": "uint256",
          "name": "deadline",
          "type": "uint256"
        },
        {
          "internalType": "uint256",
          "name": "wishCount",
          "type": "uint256"
        },
        {
          "components": [
            {
              "internalType": "uint8",
              "name": "fun",
              "type": "uint8"
            },
            {
              "internalType": "uint8",
              "name": "energy",
              "type": "uint8"
            },
            {
              "internalType": "uint8",
              "name": "hygene",
              "type": "uint8"
            },
            {
              "internalType": "uint8",
              "name": "protein",
              "type": "uint8"
            },
            {
              "internalType": "uint256[3]",
              "name": "pos",
              "type": "uint256[3]"
            },
            {
              "internalType": "uint256[3]",
              "name": "rot",
              "type": "uint256[3]"
            },
            {
              "internalType": "uint256[3]",
              "name": "sca",
              "type": "uint256[3]"
            }
          ],
          "internalType": "struct TheOpenSimulation.State",
          "name": "globalState",
          "type": "tuple"
        },
        {
          "components": [
            {
              "internalType": "uint8[2]",
              "name": "_focus",
              "type": "uint8[2]"
            },
            {
              "internalType": "uint8[2]",
              "name": "_process",
              "type": "uint8[2]"
            },
            {
              "internalType": "uint8[2]",
              "name": "_action",
              "type": "uint8[2]"
            }
          ],
          "internalType": "struct TheOpenSimulation.Status",
          "name": "status",
          "type": "tuple"
        },
        {
          "internalType": "uint256",
          "name": "lastSave",
          "type": "uint256"
        },
        {
          "internalType": "bool",
          "name": "graduated",
          "type": "bool"
        },
        {
          "internalType": "address",
          "name": "ref",
          "type": "address"
        }
      ],
      "stateMutability": "view",
      "type": "function"
    },
    {
      "inputs": [
        {
          "internalType": "uint256",
          "name": "_X",
          "type": "uint256"
        },
        {
          "internalType": "uint256",
          "name": "_Y",
          "type": "uint256"
        },
        {
          "internalType": "uint256",
          "name": "_Z",
          "type": "uint256"
        }
      ],
      "name": "setPosition",
      "outputs": [],
      "stateMutability": "nonpayable",
      "type": "function"
    },
    {
      "inputs": [
        {
          "internalType": "uint256",
          "name": "_X",
          "type": "uint256"
        },
        {
          "internalType": "uint256",
          "name": "_Y",
          "type": "uint256"
        },
        {
          "internalType": "uint256",
          "name": "_Z",
          "type": "uint256"
        }
      ],
      "name": "setRotation",
      "outputs": [],
      "stateMutability": "nonpayable",
      "type": "function"
    },
    {
      "inputs": [
        {
          "internalType": "address",
          "name": "_forgottenPlayer",
          "type": "address"
        }
      ],
      "name": "stealPlayerEnergy",
      "outputs": [],
      "stateMutability": "nonpayable",
      "type": "function"
    },
    {
      "inputs": [
        {
          "internalType": "uint256",
          "name": "",
          "type": "uint256"
        },
        {
          "internalType": "uint256",
          "name": "",
          "type": "uint256"
        }
      ],
      "name": "thoughts",
      "outputs": [
        {
          "internalType": "uint256",
          "name": "collectiveIndex",
          "type": "uint256"
        },
        {
          "internalType": "uint256",
          "name": "id",
          "type": "uint256"
        },
        {
          "internalType": "string",
          "name": "title",
          "type": "string"
        },
        {
          "internalType": "uint256",
          "name": "birthunix",
          "type": "uint256"
        },
        {
          "internalType": "enum TheOpenSimulation.ThoughtCategory",
          "name": "cat",
          "type": "uint8"
        }
      ],
      "stateMutability": "view",
      "type": "function"
    }
  ],
  "bytecode": "0x60806040523480156200001157600080fd5b506000600260003073ffffffffffffffffffffffffffffffffffffffff1673ffffffffffffffffffffffffffffffffffffffff1681526020019081526020016000209050338160140160016101000a81548173ffffffffffffffffffffffffffffffffffffffff021916908373ffffffffffffffffffffffffffffffffffffffff16021790555042816002018190555062375f0042620000b291906200089b565b8160030181905550620001626040518060a0016040528060008152602001600081526020016040518060400160405280601381526020017f53757065726e61747572616c204d656d6f72790000000000000000000000000081525081526020014281526020016000600781111562000153577f4e487b7100000000000000000000000000000000000000000000000000000000600052602160045260246000fd5b8152506200060060201b60201c565b6200020a6040518060a0016040528060008152602001600081526020016040518060400160405280600f81526020017f416d626974696f6e204d656d6f72790000000000000000000000000000000000815250815260200142815260200160016007811115620001fb577f4e487b7100000000000000000000000000000000000000000000000000000000600052602160045260246000fd5b8152506200060060201b60201c565b620002b26040518060a0016040528060008152602001600081526020016040518060400160405280600a81526020017f417274204d656d6f727900000000000000000000000000000000000000000000815250815260200142815260200160026007811115620002a3577f4e487b7100000000000000000000000000000000000000000000000000000000600052602160045260246000fd5b8152506200060060201b60201c565b6200035a6040518060a0016040528060008152602001600081526020016040518060400160405280600e81526020017f48617a61726473204d656d6f72790000000000000000000000000000000000008152508152602001428152602001600360078111156200034b577f4e487b7100000000000000000000000000000000000000000000000000000000600052602160045260246000fd5b8152506200060060201b60201c565b620004026040518060a0016040528060008152602001600081526020016040518060400160405280600c81526020017f4c6f676963204d656d6f72790000000000000000000000000000000000000000815250815260200142815260200160046007811115620003f3577f4e487b7100000000000000000000000000000000000000000000000000000000600052602160045260246000fd5b8152506200060060201b60201c565b620004aa6040518060a0016040528060008152602001600081526020016040518060400160405280600b81526020017f50657473204d656d6f72790000000000000000000000000000000000000000008152508152602001428152602001600560078111156200049b577f4e487b7100000000000000000000000000000000000000000000000000000000600052602160045260246000fd5b8152506200060060201b60201c565b620005526040518060a0016040528060008152602001600081526020016040518060400160405280600d81526020017f536f6369616c204d656d6f72790000000000000000000000000000000000000081525081526020014281526020016006600781111562000543577f4e487b7100000000000000000000000000000000000000000000000000000000600052602160045260246000fd5b8152506200060060201b60201c565b620005f96040518060a0016040528060008152602001600081526020016040518060400160405280600d81526020017f53706f727473204d656d6f7279000000000000000000000000000000000000008152508152602001428152602001600780811115620005ea577f4e487b7100000000000000000000000000000000000000000000000000000000600052602160045260246000fd5b8152506200060060201b60201c565b50620009e4565b60016000815480929190620006159062000938565b9190505550600080826080015160078111156200065b577f4e487b7100000000000000000000000000000000000000000000000000000000600052602160045260246000fd5b81526020019081526020016000206040518060a00160405280600154815260200160008085608001516007811115620006bd577f4e487b7100000000000000000000000000000000000000000000000000000000600052602160045260246000fd5b815260200190815260200160002080549050815260200183604001518152602001836060015181526020018360800151600781111562000726577f4e487b7100000000000000000000000000000000000000000000000000000000600052602160045260246000fd5b81525090806001815401808255809150506001900390600052602060002090600502016000909190919091506000820151816000015560208201518160010155604082015181600201908051906020019062000784929190620007eb565b506060820151816003015560808201518160040160006101000a81548160ff02191690836007811115620007e1577f4e487b7100000000000000000000000000000000000000000000000000000000600052602160045260246000fd5b0217905550505050565b828054620007f99062000902565b90600052602060002090601f0160209004810192826200081d576000855562000869565b82601f106200083857805160ff191683800117855562000869565b8280016001018555821562000869579182015b82811115620008685782518255916020019190600101906200084b565b5b5090506200087891906200087c565b5090565b5b80821115620008975760008160009055506001016200087d565b5090565b6000620008a882620008f8565b9150620008b583620008f8565b9250827fffffffffffffffffffffffffffffffffffffffffffffffffffffffffffffffff03821115620008ed57620008ec62000986565b5b828201905092915050565b6000819050919050565b600060028204905060018216806200091b57607f821691505b60208210811415620009325762000931620009b5565b5b50919050565b60006200094582620008f8565b91507fffffffffffffffffffffffffffffffffffffffffffffffffffffffffffffffff8214156200097b576200097a62000986565b5b600182019050919050565b7f4e487b7100000000000000000000000000000000000000000000000000000000600052601160045260246000fd5b7f4e487b7100000000000000000000000000000000000000000000000000000000600052602260045260246000fd5b614e6280620009f46000396000f3fe608060405234801561001057600080fd5b50600436106100b45760003560e01c8063bf7cbbc011610071578063bf7cbbc014610189578063c9482e57146101a7578063d2b12b47146101c3578063e2eb41ff146101f7578063e8c0420714610230578063f5cf7ebe1461024c576100b4565b80635f57076e146100b9578063755f9d6c146100e9578063785fd20114610105578063874b3afc146101215780639697bd5814610151578063b64fe1c61461016d575b600080fd5b6100d360048036038101906100ce9190613885565b61026a565b6040516100e09190614477565b60405180910390f35b61010360048036038101906100fe9190613808565b6105d9565b005b61011f600480360381019061011a9190613885565b610a0a565b005b61013b600480360381019061013691906138ae565b611252565b6040516101489190614169565b60405180910390f35b61016b600480360381019061016691906138ea565b61135b565b005b61018760048036038101906101829190613831565b6114fe565b005b610191611b46565b60405161019e9190614147565b60405180910390f35b6101c160048036038101906101bc91906138ea565b611eac565b005b6101dd60048036038101906101d891906138ae565b61204f565b6040516101ee9594939291906144dd565b60405180910390f35b610211600480360381019061020c9190613808565b612137565b6040516102279a9998979695949392919061418b565b60405180910390f35b61024a60048036038101906102459190613939565b612560565b005b610254612de0565b6040516102619190614499565b60405180910390f35b610272613520565b336000600260008373ffffffffffffffffffffffffffffffffffffffff1673ffffffffffffffffffffffffffffffffffffffff1681526020019081526020016000206002015414156102f9576040517f08c379a00000000000000000000000000000000000000000000000000000000081526004016102f090614237565b60405180910390fd5b6000600260003373ffffffffffffffffffffffffffffffffffffffff1673ffffffffffffffffffffffffffffffffffffffff1681526020019081526020016000209050806005018481548110610378577f4e487b7100000000000000000000000000000000000000000000000000000000600052603260045260246000fd5b90600052602060002090600f020160405180610140016040529081600082015481526020016001820180546103ac90614834565b80601f01602080910402602001604051908101604052809291908181526020018280546103d890614834565b80156104255780601f106103fa57610100808354040283529160200191610425565b820191906000526020600020905b81548152906001019060200180831161040857829003601f168201915b50505050508152602001600282015481526020016003820160009054906101000a900460ff166007811115610483577f4e487b7100000000000000000000000000000000000000000000000000000000600052602160045260246000fd5b60078111156104bb577f4e487b7100000000000000000000000000000000000000000000000000000000600052602160045260246000fd5b8152602001600482015481526020016005820160009054906101000a900460ff1660ff1660ff1681526020016005820160019054906101000a900460ff161515151581526020016006820160038060200260405190810160405280929190826003801561053d576020028201915b815481526020019060010190808311610529575b5050505050815260200160098201600380602002604051908101604052809291908260038015610582576020028201915b81548152602001906001019080831161056e575b50505050508152602001600c82016003806020026040519081016040528092919082600380156105c7576020028201915b8154815260200190600101908083116105b3575b50505050508152505092505050919050565b80600073ffffffffffffffffffffffffffffffffffffffff168173ffffffffffffffffffffffffffffffffffffffff16141561064a576040517f08c379a000000000000000000000000000000000000000000000000000000000815260040161064190614277565b60405180910390fd5b8073ffffffffffffffffffffffffffffffffffffffff163073ffffffffffffffffffffffffffffffffffffffff16148061071457506000600260008373ffffffffffffffffffffffffffffffffffffffff1673ffffffffffffffffffffffffffffffffffffffff16815260200190815260200160002060020154141580156107135750600260008273ffffffffffffffffffffffffffffffffffffffff1673ffffffffffffffffffffffffffffffffffffffff1681526020019081526020016000206003015442105b5b610753576040517f08c379a000000000000000000000000000000000000000000000000000000000815260040161074a90614337565b60405180910390fd5b336000600260008373ffffffffffffffffffffffffffffffffffffffff1673ffffffffffffffffffffffffffffffffffffffff1681526020019081526020016000206002015414156107da576040517f08c379a00000000000000000000000000000000000000000000000000000000081526004016107d190614237565b60405180910390fd5b6000600260008573ffffffffffffffffffffffffffffffffffffffff1673ffffffffffffffffffffffffffffffffffffffff16815260200190815260200160002090506000816013015411610864576040517f08c379a000000000000000000000000000000000000000000000000000000000815260040161085b90614357565b60405180910390fd5b6202a30081601301546108779190614686565b42116108b8576040517f08c379a00000000000000000000000000000000000000000000000000000000081526004016108af90614397565b60405180910390fd5b60028160060160000160018282829054906101000a900460ff166108dc9190614713565b92506101000a81548160ff021916908360ff16021790555060028160060160000160008282829054906101000a900460ff166109189190614713565b92506101000a81548160ff021916908360ff16021790555060028160060160000160028282829054906101000a900460ff166109549190614713565b92506101000a81548160ff021916908360ff16021790555060028160060160000160038282829054906101000a900460ff166109909190614713565b92506101000a81548160ff021916908360ff160217905550610a048160060160000160019054906101000a900460ff168260060160000160009054906101000a900460ff168360060160000160029054906101000a900460ff168460060160000160039054906101000a900460ff16612560565b50505050565b336000600260008373ffffffffffffffffffffffffffffffffffffffff1673ffffffffffffffffffffffffffffffffffffffff168152602001908152602001600020600201541415610a91576040517f08c379a0000000000000000000000000000000000000000000000000000000008152600401610a8890614237565b60405180910390fd5b6000600260003373ffffffffffffffffffffffffffffffffffffffff1673ffffffffffffffffffffffffffffffffffffffff168152602001908152602001600020905060011515816005018481548110610b14577f4e487b7100000000000000000000000000000000000000000000000000000000600052603260045260246000fd5b90600052602060002090600f020160050160019054906101000a900460ff16151514610b75576040517f08c379a0000000000000000000000000000000000000000000000000000000008152600401610b6c906142d7565b60405180910390fd5b600060019050607b826005018581548110610bb9577f4e487b7100000000000000000000000000000000000000000000000000000000600052603260045260246000fd5b90600052602060002090600f020160050160009054906101000a900460ff1660ff161080610c45575060ff826005018581548110610c20577f4e487b7100000000000000000000000000000000000000000000000000000000600052603260045260246000fd5b90600052602060002090600f020160050160009054906101000a900460ff1660ff1610155b15610ff757607b82601001600001600060028110610c8c577f4e487b7100000000000000000000000000000000000000000000000000000000600052603260045260246000fd5b602091828204019190069054906101000a900460ff1660ff161015610ce6576040517f08c379a0000000000000000000000000000000000000000000000000000000008152600401610cdd906142f7565b60405180910390fd5b607b82601001600001600160028110610d28577f4e487b7100000000000000000000000000000000000000000000000000000000600052603260045260246000fd5b602091828204019190069054906101000a900460ff1660ff161015610d82576040517f08c379a0000000000000000000000000000000000000000000000000000000008152600401610d7990614297565b60405180910390fd5b607b82601001600101600060028110610dc4577f4e487b7100000000000000000000000000000000000000000000000000000000600052603260045260246000fd5b602091828204019190069054906101000a900460ff1660ff161015610e1e576040517f08c379a0000000000000000000000000000000000000000000000000000000008152600401610e1590614457565b60405180910390fd5b607b82601001600101600160028110610e60577f4e487b7100000000000000000000000000000000000000000000000000000000600052603260045260246000fd5b602091828204019190069054906101000a900460ff1660ff161015610eba576040517f08c379a0000000000000000000000000000000000000000000000000000000008152600401610eb190614377565b60405180910390fd5b607b82601001600201600060028110610efc577f4e487b7100000000000000000000000000000000000000000000000000000000600052603260045260246000fd5b602091828204019190069054906101000a900460ff1660ff161015610f56576040517f08c379a0000000000000000000000000000000000000000000000000000000008152600401610f4d90614417565b60405180910390fd5b607b82601001600201600160028110610f98577f4e487b7100000000000000000000000000000000000000000000000000000000600052603260045260246000fd5b602091828204019190069054906101000a900460ff1660ff161015610ff2576040517f08c379a0000000000000000000000000000000000000000000000000000000008152600401610fe990614317565b60405180910390fd5b600090505b607b826005018581548110611035577f4e487b7100000000000000000000000000000000000000000000000000000000600052603260045260246000fd5b90600052602060002090600f020160050160009054906101000a900460ff1660ff16106111cd57607b8260060160000160009054906101000a900460ff1660ff1610156110b7576040517f08c379a00000000000000000000000000000000000000000000000000000000081526004016110ae906143d7565b60405180910390fd5b607b8260060160000160019054906101000a900460ff1660ff161015611112576040517f08c379a000000000000000000000000000000000000000000000000000000000815260040161110990614437565b60405180910390fd5b607b8260060160000160029054906101000a900460ff1660ff16101561116d576040517f08c379a0000000000000000000000000000000000000000000000000000000008152600401611164906143b7565b60405180910390fd5b607b8260060160000160039054906101000a900460ff1660ff1610156111c8576040517f08c379a00000000000000000000000000000000000000000000000000000000081526004016111bf906143f7565b60405180910390fd5b600090505b8082600501858154811061120a577f4e487b7100000000000000000000000000000000000000000000000000000000600052603260045260246000fd5b90600052602060002090600f020160050160016101000a81548160ff02191690831515021790555081600401600081548092919061124790614897565b919050555050505050565b60608167ffffffffffffffff811115611294577f4e487b7100000000000000000000000000000000000000000000000000000000600052604160045260246000fd5b6040519080825280602002602001820160405280156112c25781602001602082028036833780820191505090505b50905060005b828110156113545783816040516020016112e39291906144b4565b6040516020818303038152906040528051906020012060001c828281518110611335577f4e487b7100000000000000000000000000000000000000000000000000000000600052603260045260246000fd5b602002602001018181525050808061134c90614897565b9150506112c8565b5092915050565b336000600260008373ffffffffffffffffffffffffffffffffffffffff1673ffffffffffffffffffffffffffffffffffffffff1681526020019081526020016000206002015414156113e2576040517f08c379a00000000000000000000000000000000000000000000000000000000081526004016113d990614237565b60405180910390fd5b6000600260003373ffffffffffffffffffffffffffffffffffffffff1673ffffffffffffffffffffffffffffffffffffffff16815260200190815260200160002090508481600601600101600060038110611466577f4e487b7100000000000000000000000000000000000000000000000000000000600052603260045260246000fd5b018190555083816006016001016001600381106114ac577f4e487b7100000000000000000000000000000000000000000000000000000000600052603260045260246000fd5b018190555082816006016001016002600381106114f2577f4e487b7100000000000000000000000000000000000000000000000000000000600052603260045260246000fd5b01819055505050505050565b336000600260008373ffffffffffffffffffffffffffffffffffffffff1673ffffffffffffffffffffffffffffffffffffffff1681526020019081526020016000206002015414611584576040517f08c379a000000000000000000000000000000000000000000000000000000000815260040161157b90614257565b60405180910390fd5b82600073ffffffffffffffffffffffffffffffffffffffff168173ffffffffffffffffffffffffffffffffffffffff1614156115f5576040517f08c379a00000000000000000000000000000000000000000000000000000000081526004016115ec90614277565b60405180910390fd5b8073ffffffffffffffffffffffffffffffffffffffff163073ffffffffffffffffffffffffffffffffffffffff1614806116bf57506000600260008373ffffffffffffffffffffffffffffffffffffffff1673ffffffffffffffffffffffffffffffffffffffff16815260200190815260200160002060020154141580156116be5750600260008273ffffffffffffffffffffffffffffffffffffffff1673ffffffffffffffffffffffffffffffffffffffff1681526020019081526020016000206003015442105b5b6116fe576040517f08c379a00000000000000000000000000000000000000000000000000000000081526004016116f590614337565b60405180910390fd5b6000600260003373ffffffffffffffffffffffffffffffffffffffff1673ffffffffffffffffffffffffffffffffffffffff16815260200190815260200160002090503373ffffffffffffffffffffffffffffffffffffffff168573ffffffffffffffffffffffffffffffffffffffff16146117b857848160140160016101000a81548173ffffffffffffffffffffffffffffffffffffffff021916908373ffffffffffffffffffffffffffffffffffffffff1602179055505b838160010190805190602001906117d09291906135c2565b50428160020181905550621baf80426117e99190614686565b816003018190555060405180606001604052806040518060400160405280606f60ff168152602001606f60ff1681525081526020016040518060400160405280606f60ff168152602001606f60ff1681525081526020016040518060400160405280606f60ff168152602001606f60ff168152508152508160100160008201518160000190600261187b929190613648565b50602082015181600101906002611893929190613648565b506040820151816002019060026118ab929190613648565b509050506040518060e00160405280600160ff168152602001600160ff168152602001600360ff168152602001600560ff168152602001604051806060016040528060008152602001600081526020016000815250815260200160405180606001604052806000815260200160008152602001600081525081526020016040518060600160405280600081526020016000815260200160008152508152508160060160008201518160000160006101000a81548160ff021916908360ff16021790555060208201518160000160016101000a81548160ff021916908360ff16021790555060408201518160000160026101000a81548160ff021916908360ff16021790555060608201518160000160036101000a81548160ff021916908360ff1602179055506080820151816001019060036119e89291906136e2565b5060a082015181600401906003611a009291906136e2565b5060c082015181600701906003611a189291906136e2565b509050506000611a29426003611252565b905060005b6003811015611b3d5760006007838381518110611a74577f4e487b7100000000000000000000000000000000000000000000000000000000600052603260045260246000fd5b6020026020010151611a8691906148e0565b6007811115611abe577f4e487b7100000000000000000000000000000000000000000000000000000000600052602160045260246000fd5b90506000806000836007811115611afe577f4e487b7100000000000000000000000000000000000000000000000000000000600052602160045260246000fd5b81526020019081526020016000208054905042611b1b91906148e0565b9050611b28338383612de6565b50508080611b3590614897565b915050611a2e565b50505050505050565b6060336000600260008373ffffffffffffffffffffffffffffffffffffffff1673ffffffffffffffffffffffffffffffffffffffff168152602001908152602001600020600201541415611bcf576040517f08c379a0000000000000000000000000000000000000000000000000000000008152600401611bc690614237565b60405180910390fd5b600260003373ffffffffffffffffffffffffffffffffffffffff1673ffffffffffffffffffffffffffffffffffffffff168152602001908152602001600020600501805480602002602001604051908101604052809291908181526020016000905b82821015611ea257838290600052602060002090600f02016040518061014001604052908160008201548152602001600182018054611c6f90614834565b80601f0160208091040260200160405190810160405280929190818152602001828054611c9b90614834565b8015611ce85780601f10611cbd57610100808354040283529160200191611ce8565b820191906000526020600020905b815481529060010190602001808311611ccb57829003601f168201915b50505050508152602001600282015481526020016003820160009054906101000a900460ff166007811115611d46577f4e487b7100000000000000000000000000000000000000000000000000000000600052602160045260246000fd5b6007811115611d7e577f4e487b7100000000000000000000000000000000000000000000000000000000600052602160045260246000fd5b8152602001600482015481526020016005820160009054906101000a900460ff1660ff1660ff1681526020016005820160019054906101000a900460ff1615151515815260200160068201600380602002604051908101604052809291908260038015611e00576020028201915b815481526020019060010190808311611dec575b5050505050815260200160098201600380602002604051908101604052809291908260038015611e45576020028201915b815481526020019060010190808311611e31575b50505050508152602001600c8201600380602002604051908101604052809291908260038015611e8a576020028201915b815481526020019060010190808311611e76575b50505050508152505081526020019060010190611c31565b5050505091505090565b336000600260008373ffffffffffffffffffffffffffffffffffffffff1673ffffffffffffffffffffffffffffffffffffffff168152602001908152602001600020600201541415611f33576040517f08c379a0000000000000000000000000000000000000000000000000000000008152600401611f2a90614237565b60405180910390fd5b6000600260003373ffffffffffffffffffffffffffffffffffffffff1673ffffffffffffffffffffffffffffffffffffffff16815260200190815260200160002090508481600601600401600060038110611fb7577f4e487b7100000000000000000000000000000000000000000000000000000000600052603260045260246000fd5b01819055508381600601600401600160038110611ffd577f4e487b7100000000000000000000000000000000000000000000000000000000600052603260045260246000fd5b01819055508281600601600401600260038110612043577f4e487b7100000000000000000000000000000000000000000000000000000000600052603260045260246000fd5b01819055505050505050565b6000602052816000526040600020818154811061206b57600080fd5b90600052602060002090600502016000915091505080600001549080600101549080600201805461209b90614834565b80601f01602080910402602001604051908101604052809291908181526020018280546120c790614834565b80156121145780601f106120e957610100808354040283529160200191612114565b820191906000526020600020905b8154815290600101906020018083116120f757829003601f168201915b5050505050908060030154908060040160009054906101000a900460ff16905085565b600260205280600052604060002060009150905080600001805461215a90614834565b80601f016020809104026020016040519081016040528092919081815260200182805461218690614834565b80156121d35780601f106121a8576101008083540402835291602001916121d3565b820191906000526020600020905b8154815290600101906020018083116121b657829003601f168201915b5050505050908060010180546121e890614834565b80601f016020809104026020016040519081016040528092919081815260200182805461221490614834565b80156122615780601f1061223657610100808354040283529160200191612261565b820191906000526020600020905b81548152906001019060200180831161224457829003601f168201915b505050505090806002015490806003015490806004015490806006016040518060e00160405290816000820160009054906101000a900460ff1660ff1660ff1681526020016000820160019054906101000a900460ff1660ff1660ff1681526020016000820160029054906101000a900460ff1660ff1660ff1681526020016000820160039054906101000a900460ff1660ff1660ff16815260200160018201600380602002604051908101604052809291908260038015612338576020028201915b815481526020019060010190808311612324575b505050505081526020016004820160038060200260405190810160405280929190826003801561237d576020028201915b815481526020019060010190808311612369575b50505050508152602001600782016003806020026040519081016040528092919082600380156123c2576020028201915b8154815260200190600101908083116123ae575b50505050508152505090806010016040518060600160405290816000820160028060200260405190810160405280929190826002801561243d576020028201916000905b82829054906101000a900460ff1660ff16815260200190600101906020826000010492830192600103820291508084116124065790505b50505050508152602001600182016002806020026040519081016040528092919082600280156124a8576020028201916000905b82829054906101000a900460ff1660ff16815260200190600101906020826000010492830192600103820291508084116124715790505b5050505050815260200160028201600280602002604051908101604052809291908260028015612513576020028201916000905b82829054906101000a900460ff1660ff16815260200190600101906020826000010492830192600103820291508084116124dc5790505b505050505081525050908060130154908060140160009054906101000a900460ff16908060140160019054906101000a900473ffffffffffffffffffffffffffffffffffffffff1690508a565b33600073ffffffffffffffffffffffffffffffffffffffff168173ffffffffffffffffffffffffffffffffffffffff1614156125d1576040517f08c379a00000000000000000000000000000000000000000000000000000000081526004016125c890614277565b60405180910390fd5b8073ffffffffffffffffffffffffffffffffffffffff163073ffffffffffffffffffffffffffffffffffffffff16148061269b57506000600260008373ffffffffffffffffffffffffffffffffffffffff1673ffffffffffffffffffffffffffffffffffffffff168152602001908152602001600020600201541415801561269a5750600260008273ffffffffffffffffffffffffffffffffffffffff1673ffffffffffffffffffffffffffffffffffffffff1681526020019081526020016000206003015442105b5b6126da576040517f08c379a00000000000000000000000000000000000000000000000000000000081526004016126d190614337565b60405180910390fd5b6000600260003373ffffffffffffffffffffffffffffffffffffffff1673ffffffffffffffffffffffffffffffffffffffff1681526020019081526020016000209050600081601301541480612740575061a8c0816013015461273d9190614686565b42115b61277f576040517f08c379a0000000000000000000000000000000000000000000000000000000008152600401612776906142b7565b60405180910390fd5b60ff8660ff168260060160000160019054906101000a900460ff1660ff166127a79190614686565b10156127ed57858160060160000160018282829054906101000a900460ff166127d091906146dc565b92506101000a81548160ff021916908360ff16021790555061282a565b60028160060160000160018282829054906101000a900460ff166128119190614713565b92506101000a81548160ff021916908360ff1602179055505b60ff8560ff168260060160000160009054906101000a900460ff1660ff166128529190614686565b101561289857848160060160000160008282829054906101000a900460ff1661287b91906146dc565b92506101000a81548160ff021916908360ff1602179055506128d5565b60028160060160000160008282829054906101000a900460ff166128bc9190614713565b92506101000a81548160ff021916908360ff1602179055505b60ff8460ff168260060160000160029054906101000a900460ff1660ff166128fd9190614686565b101561294357838160060160000160028282829054906101000a900460ff1661292691906146dc565b92506101000a81548160ff021916908360ff160217905550612980565b60028160060160000160028282829054906101000a900460ff166129679190614713565b92506101000a81548160ff021916908360ff1602179055505b60ff8360ff168260060160000160039054906101000a900460ff1660ff166129a89190614686565b10156129ee57828160060160000160038282829054906101000a900460ff166129d191906146dc565b92506101000a81548160ff021916908360ff160217905550612a2b565b60028160060160000160038282829054906101000a900460ff16612a129190614713565b92506101000a81548160ff021916908360ff1602179055505b8060060160000160009054906101000a900460ff1660ff612a4c9190614744565b81601001600001600060028110612a8c577f4e487b7100000000000000000000000000000000000000000000000000000000600052603260045260246000fd5b602091828204019190066101000a81548160ff021916908360ff1602179055508060060160000160019054906101000a900460ff1681601001600001600160028110612b01577f4e487b7100000000000000000000000000000000000000000000000000000000600052603260045260246000fd5b602091828204019190066101000a81548160ff021916908360ff1602179055508060060160000160039054906101000a900460ff1660ff612b429190614744565b81601001600101600060028110612b82577f4e487b7100000000000000000000000000000000000000000000000000000000600052603260045260246000fd5b602091828204019190066101000a81548160ff021916908360ff1602179055508060060160000160019054906101000a900460ff1681601001600101600160028110612bf7577f4e487b7100000000000000000000000000000000000000000000000000000000600052603260045260246000fd5b602091828204019190066101000a81548160ff021916908360ff1602179055508060060160000160029054906101000a900460ff1660ff612c389190614744565b81601001600201600060028110612c78577f4e487b7100000000000000000000000000000000000000000000000000000000600052603260045260246000fd5b602091828204019190066101000a81548160ff021916908360ff1602179055508060060160000160039054906101000a900460ff1681601001600201600160028110612ced577f4e487b7100000000000000000000000000000000000000000000000000000000600052603260045260246000fd5b602091828204019190066101000a81548160ff021916908360ff1602179055506000600742612d1c91906148e0565b6007811115612d54577f4e487b7100000000000000000000000000000000000000000000000000000000600052602160045260246000fd5b90506000806000836007811115612d94577f4e487b7100000000000000000000000000000000000000000000000000000000600052602160045260246000fd5b815260200190815260200160002080549050428460020154612db69190614686565b612dc091906148e0565b9050612dcd338383613183565b4283601301819055505050505050505050565b60015481565b6000600260008573ffffffffffffffffffffffffffffffffffffffff1673ffffffffffffffffffffffffffffffffffffffff16815260200190815260200160002090508060050160405180610140016040528083600501805490508152602001600080876007811115612e82577f4e487b7100000000000000000000000000000000000000000000000000000000600052602160045260246000fd5b81526020019081526020016000208581548110612ec8577f4e487b7100000000000000000000000000000000000000000000000000000000600052603260045260246000fd5b90600052602060002090600502016002018054612ee490614834565b80601f0160208091040260200160405190810160405280929190818152602001828054612f1090614834565b8015612f5d5780601f10612f3257610100808354040283529160200191612f5d565b820191906000526020600020905b815481529060010190602001808311612f4057829003601f168201915b50505050508152602001428152602001856007811115612fa6577f4e487b7100000000000000000000000000000000000000000000000000000000600052602160045260246000fd5b815260200184815260200160ff42612fbe91906148e0565b60ff1681526020016000151581526020016040518060600160405280600081526020016000815260200160008152508152602001604051806060016040528060008152602001600081526020016000815250815260200160405180606001604052806000815260200160008152602001600081525081525090806001815401808255809150506001900390600052602060002090600f02016000909190919091506000820151816000015560208201518160010190805190602001906130859291906135c2565b506040820151816002015560608201518160030160006101000a81548160ff021916908360078111156130e1577f4e487b7100000000000000000000000000000000000000000000000000000000600052602160045260246000fd5b02179055506080820151816004015560a08201518160050160006101000a81548160ff021916908360ff16021790555060c08201518160050160016101000a81548160ff02191690831515021790555060e0820151816006019060036131489291906136e2565b50610100820151816009019060036131619291906136e2565b5061012082015181600c0190600361317a9291906136e2565b50505050505050565b6000600260008573ffffffffffffffffffffffffffffffffffffffff1673ffffffffffffffffffffffffffffffffffffffff1681526020019081526020016000209050806005016040518061014001604052808360050180549050815260200160008087600781111561321f577f4e487b7100000000000000000000000000000000000000000000000000000000600052602160045260246000fd5b81526020019081526020016000208581548110613265577f4e487b7100000000000000000000000000000000000000000000000000000000600052603260045260246000fd5b9060005260206000209060050201600201805461328190614834565b80601f01602080910402602001604051908101604052809291908181526020018280546132ad90614834565b80156132fa5780601f106132cf576101008083540402835291602001916132fa565b820191906000526020600020905b8154815290600101906020018083116132dd57829003601f168201915b50505050508152602001428152602001856007811115613343577f4e487b7100000000000000000000000000000000000000000000000000000000600052602160045260246000fd5b815260200184815260200160ff4261335b91906148e0565b60ff1681526020016001151581526020016040518060600160405280600081526020016000815260200160008152508152602001604051806060016040528060008152602001600081526020016000815250815260200160405180606001604052806000815260200160008152602001600081525081525090806001815401808255809150506001900390600052602060002090600f02016000909190919091506000820151816000015560208201518160010190805190602001906134229291906135c2565b506040820151816002015560608201518160030160006101000a81548160ff0219169083600781111561347e577f4e487b7100000000000000000000000000000000000000000000000000000000600052602160045260246000fd5b02179055506080820151816004015560a08201518160050160006101000a81548160ff021916908360ff16021790555060c08201518160050160016101000a81548160ff02191690831515021790555060e0820151816006019060036134e59291906136e2565b50610100820151816009019060036134fe9291906136e2565b5061012082015181600c019060036135179291906136e2565b50505050505050565b6040518061014001604052806000815260200160608152602001600081526020016000600781111561357b577f4e487b7100000000000000000000000000000000000000000000000000000000600052602160045260246000fd5b815260200160008152602001600060ff1681526020016000151581526020016135a2613722565b81526020016135af613722565b81526020016135bc613722565b81525090565b8280546135ce90614834565b90600052602060002090601f0160209004810192826135f05760008555613637565b82601f1061360957805160ff1916838001178555613637565b82800160010185558215613637579182015b8281111561363657825182559160200191906001019061361b565b5b5090506136449190613744565b5090565b826002601f016020900481019282156136d15791602002820160005b838211156136a257835183826101000a81548160ff021916908360ff1602179055509260200192600101602081600001049283019260010302613664565b80156136cf5782816101000a81549060ff02191690556001016020816000010492830192600103026136a2565b505b5090506136de9190613744565b5090565b8260038101928215613711579160200282015b828111156137105782518255916020019190600101906136f5565b5b50905061371e9190613744565b5090565b6040518060600160405280600390602082028036833780820191505090505090565b5b8082111561375d576000816000905550600101613745565b5090565b600061377461376f8461455c565b614537565b90508281526020810184848401111561378c57600080fd5b6137978482856147f2565b509392505050565b6000813590506137ae81614de7565b92915050565b600082601f8301126137c557600080fd5b81356137d5848260208601613761565b91505092915050565b6000813590506137ed81614dfe565b92915050565b60008135905061380281614e15565b92915050565b60006020828403121561381a57600080fd5b60006138288482850161379f565b91505092915050565b6000806040838503121561384457600080fd5b60006138528582860161379f565b925050602083013567ffffffffffffffff81111561386f57600080fd5b61387b858286016137b4565b9150509250929050565b60006020828403121561389757600080fd5b60006138a5848285016137de565b91505092915050565b600080604083850312156138c157600080fd5b60006138cf858286016137de565b92505060206138e0858286016137de565b9150509250929050565b6000806000606084860312156138ff57600080fd5b600061390d868287016137de565b935050602061391e868287016137de565b925050604061392f868287016137de565b9150509250925092565b6000806000806080858703121561394f57600080fd5b600061395d878288016137f3565b945050602061396e878288016137f3565b935050604061397f878288016137f3565b9250506060613990878288016137f3565b91505092959194509250565b60006139a88383613e94565b905092915050565b60006139bc838361411a565b60208301905092915050565b60006139d48383614138565b60208301905092915050565b6139e981614778565b82525050565b60006139fa826145c1565b613a04818561462c565b935083602082028501613a168561458d565b8060005b85811015613a525784840389528151613a33858261399c565b9450613a3e836145f8565b925060208a01995050600181019050613a1a565b50829750879550505050505092915050565b613a6d816145cc565b613a77818461463d565b9250613a828261459d565b8060005b83811015613ab3578151613a9a87826139b0565b9650613aa583614605565b925050600181019050613a86565b505050505050565b6000613ac6826145d7565b613ad08185614648565b9350613adb836145a7565b8060005b83811015613b0c578151613af388826139b0565b9750613afe83614612565b925050600181019050613adf565b5085935050505092915050565b613b22816145e2565b613b2c8184614659565b9250613b37826145b7565b8060005b83811015613b68578151613b4f87826139c8565b9650613b5a8361461f565b925050600181019050613b3b565b505050505050565b613b798161478a565b82525050565b613b888161478a565b82525050565b613b97816147e0565b82525050565b613ba6816147e0565b82525050565b6000613bb7826145ed565b613bc18185614664565b9350613bd1818560208601614801565b613bda816149fc565b840191505092915050565b6000613bf0826145ed565b613bfa8185614675565b9350613c0a818560208601614801565b613c13816149fc565b840191505092915050565b6000613c2b601383614675565b9150613c3682614a0d565b602082019050919050565b6000613c4e601183614675565b9150613c5982614a36565b602082019050919050565b6000613c71600e83614675565b9150613c7c82614a5f565b602082019050919050565b6000613c94602383614675565b9150613c9f82614a88565b604082019050919050565b6000613cb7600f83614675565b9150613cc282614ad7565b602082019050919050565b6000613cda600b83614675565b9150613ce582614b00565b602082019050919050565b6000613cfd601d83614675565b9150613d0882614b29565b602082019050919050565b6000613d20602483614675565b9150613d2b82614b52565b604082019050919050565b6000613d43600b83614675565b9150613d4e82614ba1565b602082019050919050565b6000613d66600d83614675565b9150613d7182614bca565b602082019050919050565b6000613d89602583614675565b9150613d9482614bf3565b604082019050919050565b6000613dac600d83614675565b9150613db782614c42565b602082019050919050565b6000613dcf602283614675565b9150613dda82614c6b565b604082019050919050565b6000613df2601f83614675565b9150613dfd82614cba565b602082019050919050565b6000613e15602383614675565b9150613e2082614ce3565b604082019050919050565b6000613e38601e83614675565b9150613e4382614d32565b602082019050919050565b6000613e5b602283614675565b9150613e6682614d5b565b604082019050919050565b6000613e7e601f83614675565b9150613e8982614daa565b602082019050919050565b600061020083016000830151613ead600086018261411a565b5060208301518482036020860152613ec58282613bac565b9150506040830151613eda604086018261411a565b506060830151613eed6060860182613b8e565b506080830151613f00608086018261411a565b5060a0830151613f1360a0860182614138565b5060c0830151613f2660c0860182613b70565b5060e0830151613f3960e0860182613a64565b50610100830151613f4e610140860182613a64565b50610120830151613f636101a0860182613a64565b508091505092915050565b600061020083016000830151613f87600086018261411a565b5060208301518482036020860152613f9f8282613bac565b9150506040830151613fb4604086018261411a565b506060830151613fc76060860182613b8e565b506080830151613fda608086018261411a565b5060a0830151613fed60a0860182614138565b5060c083015161400060c0860182613b70565b5060e083015161401360e0860182613a64565b50610100830151614028610140860182613a64565b5061012083015161403d6101a0860182613a64565b508091505092915050565b6101a08201600082015161405f6000850182614138565b5060208201516140726020850182614138565b5060408201516140856040850182614138565b5060608201516140986060850182614138565b5060808201516140ab6080850182613a64565b5060a08201516140be60e0850182613a64565b5060c08201516140d2610140850182613a64565b50505050565b60c0820160008201516140ee6000850182613b19565b5060208201516141016040850182613b19565b5060408201516141146080850182613b19565b50505050565b614123816147c9565b82525050565b614132816147c9565b82525050565b614141816147d3565b82525050565b6000602082019050818103600083015261416181846139ef565b905092915050565b600060208201905081810360008301526141838184613abb565b905092915050565b60006103608201905081810360008301526141a6818d613be5565b905081810360208301526141ba818c613be5565b90506141c9604083018b614129565b6141d6606083018a614129565b6141e36080830189614129565b6141f060a0830188614048565b6141fe6102408301876140d8565b61420c610300830186614129565b61421a610320830185613b7f565b6142286103408301846139e0565b9b9a5050505050505050505050565b6000602082019050818103600083015261425081613c1e565b9050919050565b6000602082019050818103600083015261427081613c41565b9050919050565b6000602082019050818103600083015261429081613c64565b9050919050565b600060208201905081810360008301526142b081613c87565b9050919050565b600060208201905081810360008301526142d081613caa565b9050919050565b600060208201905081810360008301526142f081613ccd565b9050919050565b6000602082019050818103600083015261431081613cf0565b9050919050565b6000602082019050818103600083015261433081613d13565b9050919050565b6000602082019050818103600083015261435081613d36565b9050919050565b6000602082019050818103600083015261437081613d59565b9050919050565b6000602082019050818103600083015261439081613d7c565b9050919050565b600060208201905081810360008301526143b081613d9f565b9050919050565b600060208201905081810360008301526143d081613dc2565b9050919050565b600060208201905081810360008301526143f081613de5565b9050919050565b6000602082019050818103600083015261441081613e08565b9050919050565b6000602082019050818103600083015261443081613e2b565b9050919050565b6000602082019050818103600083015261445081613e4e565b9050919050565b6000602082019050818103600083015261447081613e71565b9050919050565b600060208201905081810360008301526144918184613f6e565b905092915050565b60006020820190506144ae6000830184614129565b92915050565b60006040820190506144c96000830185614129565b6144d66020830184614129565b9392505050565b600060a0820190506144f26000830188614129565b6144ff6020830187614129565b81810360408301526145118186613be5565b90506145206060830185614129565b61452d6080830184613b9d565b9695505050505050565b6000614541614552565b905061454d8282614866565b919050565b6000604051905090565b600067ffffffffffffffff821115614577576145766149cd565b5b614580826149fc565b9050602081019050919050565b6000819050602082019050919050565b6000819050919050565b6000819050602082019050919050565b6000819050919050565b600081519050919050565b600060039050919050565b600081519050919050565b600060029050919050565b600081519050919050565b6000602082019050919050565b6000602082019050919050565b6000602082019050919050565b6000602082019050919050565b600082825260208201905092915050565b600081905092915050565b600082825260208201905092915050565b600081905092915050565b600082825260208201905092915050565b600082825260208201905092915050565b6000614691826147c9565b915061469c836147c9565b9250827fffffffffffffffffffffffffffffffffffffffffffffffffffffffffffffffff038211156146d1576146d0614911565b5b828201905092915050565b60006146e7826147d3565b91506146f2836147d3565b92508260ff0382111561470857614707614911565b5b828201905092915050565b600061471e826147d3565b9150614729836147d3565b92508261473957614738614940565b5b828204905092915050565b600061474f826147d3565b915061475a836147d3565b92508282101561476d5761476c614911565b5b828203905092915050565b6000614783826147a9565b9050919050565b60008115159050919050565b60008190506147a482614dd3565b919050565b600073ffffffffffffffffffffffffffffffffffffffff82169050919050565b6000819050919050565b600060ff82169050919050565b60006147eb82614796565b9050919050565b82818337600083830152505050565b60005b8381101561481f578082015181840152602081019050614804565b8381111561482e576000848401525b50505050565b6000600282049050600182168061484c57607f821691505b602082108114156148605761485f61499e565b5b50919050565b61486f826149fc565b810181811067ffffffffffffffff8211171561488e5761488d6149cd565b5b80604052505050565b60006148a2826147c9565b91507fffffffffffffffffffffffffffffffffffffffffffffffffffffffffffffffff8214156148d5576148d4614911565b5b600182019050919050565b60006148eb826147c9565b91506148f6836147c9565b92508261490657614905614940565b5b828206905092915050565b7f4e487b7100000000000000000000000000000000000000000000000000000000600052601160045260246000fd5b7f4e487b7100000000000000000000000000000000000000000000000000000000600052601260045260246000fd5b7f4e487b7100000000000000000000000000000000000000000000000000000000600052602160045260246000fd5b7f4e487b7100000000000000000000000000000000000000000000000000000000600052602260045260246000fd5b7f4e487b7100000000000000000000000000000000000000000000000000000000600052604160045260246000fd5b6000601f19601f8301169050919050565b7f554e524547495354455245445f504c4159455200000000000000000000000000600082015250565b7f524547495354455245445f504c41594552000000000000000000000000000000600082015250565b7f494e56414c49445f504c41594552000000000000000000000000000000000000600082015250565b7f4e4f545f454e4f5547485f53544154207374617475732e5f666f63757320666f60008201527f7263650000000000000000000000000000000000000000000000000000000000602082015250565b7f524543454e545f41435449564954590000000000000000000000000000000000600082015250565b7f49535f4e4f545f57495348000000000000000000000000000000000000000000600082015250565b7f4e4f545f454e4f5547485f53544154207374617475732e5f666f637573000000600082015250565b7f4e4f545f454e4f5547485f53544154207374617475732e5f616374696f6e206660008201527f6f72636500000000000000000000000000000000000000000000000000000000602082015250565b7f444541445f504c41594552000000000000000000000000000000000000000000600082015250565b7f554e555345445f504c4159455200000000000000000000000000000000000000600082015250565b7f4e4f545f454e4f5547485f53544154207374617475732e5f70726f636573732060008201527f666f726365000000000000000000000000000000000000000000000000000000602082015250565b7f4e4f545f464f52474f5454454e00000000000000000000000000000000000000600082015250565b7f4e4f545f454e4f5547485f5354415420676c6f62616c53746174652e6879676560008201527f6e65000000000000000000000000000000000000000000000000000000000000602082015250565b7f4e4f545f454e4f5547485f5354415420676c6f62616c53746174652e66756e00600082015250565b7f4e4f545f454e4f5547485f5354415420676c6f62616c53746174652e70726f7460008201527f65696e0000000000000000000000000000000000000000000000000000000000602082015250565b7f4e4f545f454e4f5547485f53544154207374617475732e5f616374696f6e0000600082015250565b7f4e4f545f454e4f5547485f5354415420676c6f62616c53746174652e656e657260008201527f6779000000000000000000000000000000000000000000000000000000000000602082015250565b7f4e4f545f454e4f5547485f53544154207374617475732e5f70726f6365737300600082015250565b60088110614de457614de361496f565b5b50565b614df081614778565b8114614dfb57600080fd5b50565b614e07816147c9565b8114614e1257600080fd5b50565b614e1e816147d3565b8114614e2957600080fd5b5056fea26469706673582212201f8114d84bf3159c3a28dda7746de37af10ff69df1677fb0812357174d89ba6064736f6c63430008040033",
  "linkReferences": {},
  "deployedLinkReferences": {}
}