{
  "_format": "hh-sol-artifact-1",
  "contractName": "TheOpenLottoDAO",
  "sourceName": "contracts/TheOpenLottoDAO.sol",
  "abi": [
    {
      "inputs": [
        {
          "internalType": "address",
          "name": "_LottoERC20",
          "type": "address"
        },
        {
          "internalType": "address",
          "name": "_theLotto",
          "type": "address"
        }
      ],
      "stateMutability": "nonpayable",
      "type": "constructor"
    },
    {
      "anonymous": false,
      "inputs": [
        {
          "indexed": true,
          "internalType": "address",
          "name": "previousOwner",
          "type": "address"
        },
        {
          "indexed": true,
          "internalType": "address",
          "name": "newOwner",
          "type": "address"
        }
      ],
      "name": "OwnershipTransferred",
      "type": "event"
    },
    {
      "stateMutability": "payable",
      "type": "fallback"
    },
    {
      "inputs": [],
      "name": "LottoERC20",
      "outputs": [
        {
          "internalType": "address",
          "name": "",
          "type": "address"
        }
      ],
      "stateMutability": "view",
      "type": "function"
    },
    {
      "inputs": [],
      "name": "MAX_INT_TYPE",
      "outputs": [
        {
          "internalType": "uint256",
          "name": "",
          "type": "uint256"
        }
      ],
      "stateMutability": "view",
      "type": "function"
    },
    {
      "inputs": [],
      "name": "VOTE_COST",
      "outputs": [
        {
          "internalType": "uint256",
          "name": "",
          "type": "uint256"
        }
      ],
      "stateMutability": "view",
      "type": "function"
    },
    {
      "inputs": [
        {
          "internalType": "uint256",
          "name": "_proposalIndex",
          "type": "uint256"
        }
      ],
      "name": "amountOfVotesRequired",
      "outputs": [
        {
          "internalType": "uint256",
          "name": "",
          "type": "uint256"
        }
      ],
      "stateMutability": "view",
      "type": "function"
    },
    {
      "inputs": [
        {
          "internalType": "uint256",
          "name": "_amountOfVotesRequired",
          "type": "uint256"
        },
        {
          "internalType": "uint256",
          "name": "_minutes",
          "type": "uint256"
        }
      ],
      "name": "createProposal",
      "outputs": [
        {
          "internalType": "uint256",
          "name": "",
          "type": "uint256"
        }
      ],
      "stateMutability": "nonpayable",
      "type": "function"
    },
    {
      "inputs": [
        {
          "internalType": "uint256",
          "name": "_proposalIndex",
          "type": "uint256"
        }
      ],
      "name": "executeProposal",
      "outputs": [],
      "stateMutability": "nonpayable",
      "type": "function"
    },
    {
      "inputs": [],
      "name": "geUnlockTime",
      "outputs": [
        {
          "internalType": "uint256",
          "name": "",
          "type": "uint256"
        }
      ],
      "stateMutability": "view",
      "type": "function"
    },
    {
      "inputs": [
        {
          "internalType": "uint256",
          "name": "_proposalIndex",
          "type": "uint256"
        },
        {
          "internalType": "address",
          "name": "_voter",
          "type": "address"
        }
      ],
      "name": "getVoterAmountOfTokens",
      "outputs": [
        {
          "internalType": "uint256",
          "name": "",
          "type": "uint256"
        }
      ],
      "stateMutability": "view",
      "type": "function"
    },
    {
      "inputs": [
        {
          "internalType": "uint256",
          "name": "_proposalIndex",
          "type": "uint256"
        },
        {
          "internalType": "address",
          "name": "_voter",
          "type": "address"
        }
      ],
      "name": "getVoterAmountOfVotes",
      "outputs": [
        {
          "internalType": "uint256",
          "name": "",
          "type": "uint256"
        }
      ],
      "stateMutability": "view",
      "type": "function"
    },
    {
      "inputs": [
        {
          "internalType": "uint256",
          "name": "_proposalIndex",
          "type": "uint256"
        },
        {
          "internalType": "address",
          "name": "_voter",
          "type": "address"
        }
      ],
      "name": "getVoterRefAmount",
      "outputs": [
        {
          "internalType": "uint256",
          "name": "",
          "type": "uint256"
        }
      ],
      "stateMutability": "view",
      "type": "function"
    },
    {
      "inputs": [
        {
          "internalType": "uint256",
          "name": "_proposalIndex",
          "type": "uint256"
        },
        {
          "internalType": "address",
          "name": "_voter",
          "type": "address"
        }
      ],
      "name": "getVoterVoteIndex",
      "outputs": [
        {
          "internalType": "uint256",
          "name": "",
          "type": "uint256"
        }
      ],
      "stateMutability": "view",
      "type": "function"
    },
    {
      "inputs": [
        {
          "internalType": "uint256",
          "name": "time",
          "type": "uint256"
        }
      ],
      "name": "lock",
      "outputs": [],
      "stateMutability": "nonpayable",
      "type": "function"
    },
    {
      "inputs": [],
      "name": "numProposals",
      "outputs": [
        {
          "internalType": "uint256",
          "name": "",
          "type": "uint256"
        }
      ],
      "stateMutability": "view",
      "type": "function"
    },
    {
      "inputs": [],
      "name": "owner",
      "outputs": [
        {
          "internalType": "address",
          "name": "",
          "type": "address"
        }
      ],
      "stateMutability": "view",
      "type": "function"
    },
    {
      "inputs": [
        {
          "internalType": "uint256",
          "name": "",
          "type": "uint256"
        }
      ],
      "name": "proposals",
      "outputs": [
        {
          "internalType": "uint256",
          "name": "amountOfVotes",
          "type": "uint256"
        },
        {
          "internalType": "uint256",
          "name": "amountOfVotesRequired",
          "type": "uint256"
        },
        {
          "internalType": "uint256",
          "name": "amountOfTokens",
          "type": "uint256"
        },
        {
          "internalType": "uint256",
          "name": "amountOfTokensRequired",
          "type": "uint256"
        },
        {
          "internalType": "uint256",
          "name": "deadline",
          "type": "uint256"
        },
        {
          "internalType": "bool",
          "name": "executed",
          "type": "bool"
        }
      ],
      "stateMutability": "view",
      "type": "function"
    },
    {
      "inputs": [],
      "name": "renounceOwnership",
      "outputs": [],
      "stateMutability": "nonpayable",
      "type": "function"
    },
    {
      "inputs": [
        {
          "internalType": "address",
          "name": "_lotto",
          "type": "address"
        }
      ],
      "name": "setLotto",
      "outputs": [],
      "stateMutability": "nonpayable",
      "type": "function"
    },
    {
      "inputs": [],
      "name": "theLotto",
      "outputs": [
        {
          "internalType": "address",
          "name": "",
          "type": "address"
        }
      ],
      "stateMutability": "view",
      "type": "function"
    },
    {
      "inputs": [
        {
          "internalType": "address",
          "name": "newOwner",
          "type": "address"
        }
      ],
      "name": "transferOwnership",
      "outputs": [],
      "stateMutability": "nonpayable",
      "type": "function"
    },
    {
      "inputs": [],
      "name": "unlock",
      "outputs": [],
      "stateMutability": "nonpayable",
      "type": "function"
    },
    {
      "inputs": [
        {
          "internalType": "uint256",
          "name": "_proposalIndex",
          "type": "uint256"
        },
        {
          "internalType": "uint256",
          "name": "_amountOfVotes",
          "type": "uint256"
        },
        {
          "internalType": "address",
          "name": "_ref",
          "type": "address"
        }
      ],
      "name": "voteOnProposal",
      "outputs": [],
      "stateMutability": "nonpayable",
      "type": "function"
    },
    {
      "inputs": [],
      "name": "withdrawBalance",
      "outputs": [],
      "stateMutability": "nonpayable",
      "type": "function"
    },
    {
      "inputs": [],
      "name": "withdrawEther",
      "outputs": [],
      "stateMutability": "nonpayable",
      "type": "function"
    },
    {
      "inputs": [
        {
          "internalType": "uint256",
          "name": "_proposalIndex",
          "type": "uint256"
        }
      ],
      "name": "withdrawFromFailedProposal",
      "outputs": [],
      "stateMutability": "nonpayable",
      "type": "function"
    },
    {
      "inputs": [
        {
          "internalType": "uint256",
          "name": "_proposalIndex",
          "type": "uint256"
        }
      ],
      "name": "withdrawRefBonus",
      "outputs": [],
      "stateMutability": "nonpayable",
      "type": "function"
    },
    {
      "stateMutability": "payable",
      "type": "receive"
    }
  ],
  "bytecode": "0x608060405267016345785d8a00006003553480156200001d57600080fd5b506040516200404e3803806200404e83398181016040528101906200004391906200019c565b6000620000556200017d60201b60201c565b9050806000806101000a81548173ffffffffffffffffffffffffffffffffffffffff021916908373ffffffffffffffffffffffffffffffffffffffff1602179055508073ffffffffffffffffffffffffffffffffffffffff16600073ffffffffffffffffffffffffffffffffffffffff167f8be0079c531659141344cd1fd0a4f28419497f9722a3daafe3b4186f6b6457e060405160405180910390a35081600760006101000a81548173ffffffffffffffffffffffffffffffffffffffff021916908373ffffffffffffffffffffffffffffffffffffffff16021790555080600660006101000a81548173ffffffffffffffffffffffffffffffffffffffff021916908373ffffffffffffffffffffffffffffffffffffffff16021790555050506200022b565b600033905090565b600081519050620001968162000211565b92915050565b60008060408385031215620001b057600080fd5b6000620001c08582860162000185565b9250506020620001d38582860162000185565b9150509250929050565b6000620001ea82620001f1565b9050919050565b600073ffffffffffffffffffffffffffffffffffffffff82169050919050565b6200021c81620001dd565b81146200022857600080fd5b50565b613e13806200023b6000396000f3fe60806040526004361061016a5760003560e01c80636935bda6116100d1578063a69df4b51161008a578063dd46706411610064578063dd46706414610525578063f2fde38b1461054e578063f4abd43814610577578063fe71b8ba146105a057610171565b8063a69df4b5146104ba578063b6c52324146104d1578063d5892b55146104fc57610171565b80636935bda6146103d2578063708878f11461040f578063715018a6146104385780637362377b1461044f5780638da5cb5b14610466578063a28afa171461049157610171565b80632b64f1d2116101235780632b64f1d2146102ae578063380f4bac146102d9578063400e39491461031657806357261487146103415780635fd8c7101461037e5780636209a58b1461039557610171565b8063013cf08b146101735780630d61b519146101b557806314c12703146101de578063261dc9891461021b5780632934261a1461025857806329ad94021461028357610171565b3661017157005b005b34801561017f57600080fd5b5061019a60048036038101906101959190612e0e565b6105cb565b6040516101ac969594939291906136d5565b60405180910390f35b3480156101c157600080fd5b506101dc60048036038101906101d79190612e0e565b610614565b005b3480156101ea57600080fd5b5061020560048036038101906102009190612e0e565b610ada565b6040516102129190613683565b60405180910390f35b34801561022757600080fd5b50610242600480360381019061023d9190612e60565b610aff565b60405161024f9190613683565b60405180910390f35b34801561026457600080fd5b5061026d610be7565b60405161027a91906132bf565b60405180910390f35b34801561028f57600080fd5b50610298610c0d565b6040516102a59190613683565b60405180910390f35b3480156102ba57600080fd5b506102c3610c31565b6040516102d091906132bf565b60405180910390f35b3480156102e557600080fd5b5061030060048036038101906102fb9190612e60565b610c57565b60405161030d9190613683565b60405180910390f35b34801561032257600080fd5b5061032b610d3f565b6040516103389190613683565b60405180910390f35b34801561034d57600080fd5b5061036860048036038101906103639190612e60565b610d45565b6040516103759190613683565b60405180910390f35b34801561038a57600080fd5b50610393610e2d565b005b3480156103a157600080fd5b506103bc60048036038101906103b79190612e60565b611057565b6040516103c99190613683565b60405180910390f35b3480156103de57600080fd5b506103f960048036038101906103f49190612e9c565b61113f565b6040516104069190613683565b60405180910390f35b34801561041b57600080fd5b5061043660048036038101906104319190612dbc565b6113b5565b005b34801561044457600080fd5b5061044d61148e565b005b34801561045b57600080fd5b506104646115e1565b005b34801561047257600080fd5b5061047b6116c6565b60405161048891906132bf565b60405180910390f35b34801561049d57600080fd5b506104b860048036038101906104b39190612ed8565b6116ef565b005b3480156104c657600080fd5b506104cf611e39565b005b3480156104dd57600080fd5b506104e661200d565b6040516104f39190613683565b60405180910390f35b34801561050857600080fd5b50610523600480360381019061051e9190612e0e565b612017565b005b34801561053157600080fd5b5061054c60048036038101906105479190612e0e565b612528565b005b34801561055a57600080fd5b5061057560048036038101906105709190612dbc565b6126ef565b005b34801561058357600080fd5b5061059e60048036038101906105999190612e0e565b6128b1565b005b3480156105ac57600080fd5b506105b5612d5a565b6040516105c29190613683565b60405180910390f35b60046020528060005260406000206000915090508060000154908060010154908060020154908060030154908060040154908060050160009054906101000a900460ff16905086565b6000600760009054906101000a900473ffffffffffffffffffffffffffffffffffffffff1673ffffffffffffffffffffffffffffffffffffffff1663dd62ed3e33306040518363ffffffff1660e01b81526004016106739291906132da565b60206040518083038186803b15801561068b57600080fd5b505afa15801561069f573d6000803e3d6000fd5b505050506040513d601f19601f820116820180604052508101906106c39190612e37565b11610703576040517f08c379a00000000000000000000000000000000000000000000000000000000081526004016106fa906134c3565b60405180910390fd5b80426004600083815260200190815260200160002060040154111561075d576040517f08c379a000000000000000000000000000000000000000000000000000000000815260040161075490613383565b60405180910390fd5b60006004600084815260200190815260200160002090508060030154816002015410156107bf576040517f08c379a00000000000000000000000000000000000000000000000000000000081526004016107b690613563565b60405180910390fd5b80600101548160000154101561080a576040517f08c379a000000000000000000000000000000000000000000000000000000000815260040161080190613523565b60405180910390fd5b8060020154600760009054906101000a900473ffffffffffffffffffffffffffffffffffffffff1673ffffffffffffffffffffffffffffffffffffffff166370a08231306040518263ffffffff1660e01b815260040161086a91906132bf565b60206040518083038186803b15801561088257600080fd5b505afa158015610896573d6000803e3d6000fd5b505050506040513d601f19601f820116820180604052508101906108ba9190612e37565b10156108fb576040517f08c379a00000000000000000000000000000000000000000000000000000000081526004016108f290613423565b60405180910390fd5b600760009054906101000a900473ffffffffffffffffffffffffffffffffffffffff1673ffffffffffffffffffffffffffffffffffffffff1663095ea7b3600660009054906101000a900473ffffffffffffffffffffffffffffffffffffffff167fffffffffffffffffffffffffffffffffffffffffffffffffffffffffffffffff6040518363ffffffff1660e01b815260040161099a92919061333a565b602060405180830381600087803b1580156109b457600080fd5b505af11580156109c8573d6000803e3d6000fd5b505050506040513d601f19601f820116820180604052508101906109ec9190612de5565b610a1f577f4e487b7100000000000000000000000000000000000000000000000000000000600052600160045260246000fd5b600660009054906101000a900473ffffffffffffffffffffffffffffffffffffffff1673ffffffffffffffffffffffffffffffffffffffff1663c71bf91a84836002015484600001546040518463ffffffff1660e01b8152600401610a869392919061369e565b600060405180830381600087803b158015610aa057600080fd5b505af1158015610ab4573d6000803e3d6000fd5b5050505060018160050160006101000a81548160ff021916908315150217905550505050565b6000806004600084815260200190815260200160002090508060010154915050919050565b60008060046000858152602001908152602001600020905060008160060160008573ffffffffffffffffffffffffffffffffffffffff1673ffffffffffffffffffffffffffffffffffffffff168152602001908152602001600020541415610b9c576040517f08c379a0000000000000000000000000000000000000000000000000000000008152600401610b9390613503565b60405180910390fd5b8060060160008473ffffffffffffffffffffffffffffffffffffffff1673ffffffffffffffffffffffffffffffffffffffff1681526020019081526020016000205491505092915050565b600660009054906101000a900473ffffffffffffffffffffffffffffffffffffffff1681565b7fffffffffffffffffffffffffffffffffffffffffffffffffffffffffffffffff81565b600760009054906101000a900473ffffffffffffffffffffffffffffffffffffffff1681565b60008060046000858152602001908152602001600020905060008160090160008573ffffffffffffffffffffffffffffffffffffffff1673ffffffffffffffffffffffffffffffffffffffff168152602001908152602001600020541415610cf4576040517f08c379a0000000000000000000000000000000000000000000000000000000008152600401610ceb906135e3565b60405180910390fd5b8060090160008473ffffffffffffffffffffffffffffffffffffffff1673ffffffffffffffffffffffffffffffffffffffff1681526020019081526020016000205491505092915050565b60055481565b60008060046000858152602001908152602001600020905060008160080160008573ffffffffffffffffffffffffffffffffffffffff1673ffffffffffffffffffffffffffffffffffffffff168152602001908152602001600020541415610de2576040517f08c379a0000000000000000000000000000000000000000000000000000000008152600401610dd990613583565b60405180910390fd5b8060080160008473ffffffffffffffffffffffffffffffffffffffff1673ffffffffffffffffffffffffffffffffffffffff1681526020019081526020016000205491505092915050565b610e35612d60565b73ffffffffffffffffffffffffffffffffffffffff1660008054906101000a900473ffffffffffffffffffffffffffffffffffffffff1673ffffffffffffffffffffffffffffffffffffffff1614610ec2576040517f08c379a0000000000000000000000000000000000000000000000000000000008152600401610eb9906134e3565b60405180910390fd5b600760009054906101000a900473ffffffffffffffffffffffffffffffffffffffff1673ffffffffffffffffffffffffffffffffffffffff1663a9059cbb610f086116c6565b600760009054906101000a900473ffffffffffffffffffffffffffffffffffffffff1673ffffffffffffffffffffffffffffffffffffffff166370a08231306040518263ffffffff1660e01b8152600401610f6391906132bf565b60206040518083038186803b158015610f7b57600080fd5b505afa158015610f8f573d6000803e3d6000fd5b505050506040513d601f19601f82011682018060405250810190610fb39190612e37565b6040518363ffffffff1660e01b8152600401610fd092919061333a565b602060405180830381600087803b158015610fea57600080fd5b505af1158015610ffe573d6000803e3d6000fd5b505050506040513d601f19601f820116820180604052508101906110229190612de5565b611055577f4e487b7100000000000000000000000000000000000000000000000000000000600052600160045260246000fd5b565b60008060046000858152602001908152602001600020905060008160070160008573ffffffffffffffffffffffffffffffffffffffff1673ffffffffffffffffffffffffffffffffffffffff1681526020019081526020016000205414156110f4576040517f08c379a00000000000000000000000000000000000000000000000000000000081526004016110eb90613623565b60405180910390fd5b8060070160008473ffffffffffffffffffffffffffffffffffffffff1673ffffffffffffffffffffffffffffffffffffffff1681526020019081526020016000205491505092915050565b600080600760009054906101000a900473ffffffffffffffffffffffffffffffffffffffff1673ffffffffffffffffffffffffffffffffffffffff1663dd62ed3e33306040518363ffffffff1660e01b815260040161119f9291906132da565b60206040518083038186803b1580156111b757600080fd5b505afa1580156111cb573d6000803e3d6000fd5b505050506040513d601f19601f820116820180604052508101906111ef9190612e37565b1161122f576040517f08c379a0000000000000000000000000000000000000000000000000000000008152600401611226906134c3565b60405180910390fd5b60018211611272576040517f08c379a000000000000000000000000000000000000000000000000000000000815260040161126990613363565b60405180910390fd5b6103e783116112b6576040517f08c379a00000000000000000000000000000000000000000000000000000000081526004016112ad90613643565b60405180910390fd5b600060046000600554815260200190815260200160002090506000600554146113465760006004600060016005546112ee9190613828565b8152602001908152602001600020905080600401544211611344576040517f08c379a000000000000000000000000000000000000000000000000000000000815260040161133b90613403565b60405180910390fd5b505b8381600101819055508360035461135d91906137ce565b8160030181905550603c8361137291906137ce565b4261137d9190613747565b816004018190555060056000815480929190611398906138a4565b919050555060016005546113ac9190613828565b91505092915050565b6113bd612d60565b73ffffffffffffffffffffffffffffffffffffffff1660008054906101000a900473ffffffffffffffffffffffffffffffffffffffff1673ffffffffffffffffffffffffffffffffffffffff161461144a576040517f08c379a0000000000000000000000000000000000000000000000000000000008152600401611441906134e3565b60405180910390fd5b80600660006101000a81548173ffffffffffffffffffffffffffffffffffffffff021916908373ffffffffffffffffffffffffffffffffffffffff16021790555050565b611496612d60565b73ffffffffffffffffffffffffffffffffffffffff1660008054906101000a900473ffffffffffffffffffffffffffffffffffffffff1673ffffffffffffffffffffffffffffffffffffffff1614611523576040517f08c379a000000000000000000000000000000000000000000000000000000000815260040161151a906134e3565b60405180910390fd5b600073ffffffffffffffffffffffffffffffffffffffff1660008054906101000a900473ffffffffffffffffffffffffffffffffffffffff1673ffffffffffffffffffffffffffffffffffffffff167f8be0079c531659141344cd1fd0a4f28419497f9722a3daafe3b4186f6b6457e060405160405180910390a360008060006101000a81548173ffffffffffffffffffffffffffffffffffffffff021916908373ffffffffffffffffffffffffffffffffffffffff160217905550565b6115e9612d60565b73ffffffffffffffffffffffffffffffffffffffff1660008054906101000a900473ffffffffffffffffffffffffffffffffffffffff1673ffffffffffffffffffffffffffffffffffffffff1614611676576040517f08c379a000000000000000000000000000000000000000000000000000000000815260040161166d906134e3565b60405180910390fd5b61167e6116c6565b73ffffffffffffffffffffffffffffffffffffffff166108fc479081150290604051600060405180830381858888f193505050501580156116c3573d6000803e3d6000fd5b50565b60008060009054906101000a900473ffffffffffffffffffffffffffffffffffffffff16905090565b6000600760009054906101000a900473ffffffffffffffffffffffffffffffffffffffff1673ffffffffffffffffffffffffffffffffffffffff1663dd62ed3e33306040518363ffffffff1660e01b815260040161174e9291906132da565b60206040518083038186803b15801561176657600080fd5b505afa15801561177a573d6000803e3d6000fd5b505050506040513d601f19601f8201168201806040525081019061179e9190612e37565b116117de576040517f08c379a00000000000000000000000000000000000000000000000000000000081526004016117d5906134c3565b60405180910390fd5b8242600460008381526020019081526020016000206004015411611837576040517f08c379a000000000000000000000000000000000000000000000000000000000815260040161182e90613463565b60405180910390fd5b60006004600086815260200190815260200160002090506000600760009054906101000a900473ffffffffffffffffffffffffffffffffffffffff1673ffffffffffffffffffffffffffffffffffffffff166370a08231336040518263ffffffff1660e01b81526004016118ab91906132bf565b60206040518083038186803b1580156118c357600080fd5b505afa1580156118d7573d6000803e3d6000fd5b505050506040513d601f19601f820116820180604052508101906118fb9190612e37565b905060008560035461190d91906137ce565b905080821015611952576040517f08c379a0000000000000000000000000000000000000000000000000000000008152600401611949906135c3565b60405180910390fd5b60008360080160003373ffffffffffffffffffffffffffffffffffffffff1673ffffffffffffffffffffffffffffffffffffffff16815260200190815260200160002054146119d6576040517f08c379a00000000000000000000000000000000000000000000000000000000081526004016119cd906134a3565b60405180910390fd5b60008611611a19576040517f08c379a0000000000000000000000000000000000000000000000000000000008152600401611a1090613663565b60405180910390fd5b60018360000154611a2a9190613747565b8360060160003373ffffffffffffffffffffffffffffffffffffffff1673ffffffffffffffffffffffffffffffffffffffff16815260200190815260200160002081905550858360070160003373ffffffffffffffffffffffffffffffffffffffff1673ffffffffffffffffffffffffffffffffffffffff16815260200190815260200160002081905550808360080160003373ffffffffffffffffffffffffffffffffffffffff1673ffffffffffffffffffffffffffffffffffffffff1681526020019081526020016000208190555080836002016000828254611b0f9190613747565b9250508190555085836000016000828254611b2a9190613747565b92505081905550600760009054906101000a900473ffffffffffffffffffffffffffffffffffffffff1673ffffffffffffffffffffffffffffffffffffffff166323b872dd3330846040518463ffffffff1660e01b8152600401611b9093929190613303565b602060405180830381600087803b158015611baa57600080fd5b505af1158015611bbe573d6000803e3d6000fd5b505050506040513d601f19601f82011682018060405250810190611be29190612de5565b611c15577f4e487b7100000000000000000000000000000000000000000000000000000000600052600160045260246000fd5b600760009054906101000a900473ffffffffffffffffffffffffffffffffffffffff1673ffffffffffffffffffffffffffffffffffffffff1663095ea7b3337fffffffffffffffffffffffffffffffffffffffffffffffffffffffffffffffff6040518363ffffffff1660e01b8152600401611c9292919061333a565b602060405180830381600087803b158015611cac57600080fd5b505af1158015611cc0573d6000803e3d6000fd5b505050506040513d601f19601f82011682018060405250810190611ce49190612de5565b611d17577f4e487b7100000000000000000000000000000000000000000000000000000000600052600160045260246000fd5b600073ffffffffffffffffffffffffffffffffffffffff168573ffffffffffffffffffffffffffffffffffffffff1614158015611d8057503373ffffffffffffffffffffffffffffffffffffffff168573ffffffffffffffffffffffffffffffffffffffff1614155b15611e30576064600a82611d9491906137ce565b611d9e919061379d565b8360090160008773ffffffffffffffffffffffffffffffffffffffff1673ffffffffffffffffffffffffffffffffffffffff16815260200190815260200160002054611dea9190613747565b8360090160008773ffffffffffffffffffffffffffffffffffffffff1673ffffffffffffffffffffffffffffffffffffffff168152602001908152602001600020819055505b50505050505050565b3373ffffffffffffffffffffffffffffffffffffffff16600160009054906101000a900473ffffffffffffffffffffffffffffffffffffffff1673ffffffffffffffffffffffffffffffffffffffff1614611ec9576040517f08c379a0000000000000000000000000000000000000000000000000000000008152600401611ec090613603565b60405180910390fd5b6002544211611f0d576040517f08c379a0000000000000000000000000000000000000000000000000000000008152600401611f04906135a3565b60405180910390fd5b600160009054906101000a900473ffffffffffffffffffffffffffffffffffffffff1673ffffffffffffffffffffffffffffffffffffffff1660008054906101000a900473ffffffffffffffffffffffffffffffffffffffff1673ffffffffffffffffffffffffffffffffffffffff167f8be0079c531659141344cd1fd0a4f28419497f9722a3daafe3b4186f6b6457e060405160405180910390a3600160009054906101000a900473ffffffffffffffffffffffffffffffffffffffff166000806101000a81548173ffffffffffffffffffffffffffffffffffffffff021916908373ffffffffffffffffffffffffffffffffffffffff160217905550565b6000600254905090565b6000600760009054906101000a900473ffffffffffffffffffffffffffffffffffffffff1673ffffffffffffffffffffffffffffffffffffffff1663dd62ed3e33306040518363ffffffff1660e01b81526004016120769291906132da565b60206040518083038186803b15801561208e57600080fd5b505afa1580156120a2573d6000803e3d6000fd5b505050506040513d601f19601f820116820180604052508101906120c69190612e37565b11612106576040517f08c379a00000000000000000000000000000000000000000000000000000000081526004016120fd906134c3565b60405180910390fd5b804260046000838152602001908152602001600020600401541115612160576040517f08c379a000000000000000000000000000000000000000000000000000000000815260040161215790613383565b60405180910390fd5b600015156004600083815260200190815260200160002060050160009054906101000a900460ff161515146121ca576040517f08c379a00000000000000000000000000000000000000000000000000000000081526004016121c190613443565b60405180910390fd5b6000600460008481526020019081526020016000209050806003015481600201541080156121ff575080600101548160000154105b61223e576040517f08c379a0000000000000000000000000000000000000000000000000000000008152600401612235906133a3565b60405180910390fd5b60008160080160003373ffffffffffffffffffffffffffffffffffffffff1673ffffffffffffffffffffffffffffffffffffffff16815260200190815260200160002054905060018114156122c8576040517f08c379a00000000000000000000000000000000000000000000000000000000081526004016122bf90613483565b60405180910390fd5b600081141561230c576040517f08c379a000000000000000000000000000000000000000000000000000000000815260040161230390613543565b60405180910390fd5b80600760009054906101000a900473ffffffffffffffffffffffffffffffffffffffff1673ffffffffffffffffffffffffffffffffffffffff166370a08231306040518263ffffffff1660e01b815260040161236891906132bf565b60206040518083038186803b15801561238057600080fd5b505afa158015612394573d6000803e3d6000fd5b505050506040513d601f19601f820116820180604052508101906123b89190612e37565b10156123f9576040517f08c379a00000000000000000000000000000000000000000000000000000000081526004016123f090613423565b60405180910390fd5b600760009054906101000a900473ffffffffffffffffffffffffffffffffffffffff1673ffffffffffffffffffffffffffffffffffffffff1663a9059cbb33836040518363ffffffff1660e01b815260040161245692919061333a565b602060405180830381600087803b15801561247057600080fd5b505af1158015612484573d6000803e3d6000fd5b505050506040513d601f19601f820116820180604052508101906124a89190612de5565b6124db577f4e487b7100000000000000000000000000000000000000000000000000000000600052600160045260246000fd5b60018260080160003373ffffffffffffffffffffffffffffffffffffffff1673ffffffffffffffffffffffffffffffffffffffff1681526020019081526020016000208190555050505050565b612530612d60565b73ffffffffffffffffffffffffffffffffffffffff1660008054906101000a900473ffffffffffffffffffffffffffffffffffffffff1673ffffffffffffffffffffffffffffffffffffffff16146125bd576040517f08c379a00000000000000000000000000000000000000000000000000000000081526004016125b4906134e3565b60405180910390fd5b60008054906101000a900473ffffffffffffffffffffffffffffffffffffffff16600160006101000a81548173ffffffffffffffffffffffffffffffffffffffff021916908373ffffffffffffffffffffffffffffffffffffffff16021790555060008060006101000a81548173ffffffffffffffffffffffffffffffffffffffff021916908373ffffffffffffffffffffffffffffffffffffffff160217905550804261266b9190613747565b600281905550600073ffffffffffffffffffffffffffffffffffffffff1660008054906101000a900473ffffffffffffffffffffffffffffffffffffffff1673ffffffffffffffffffffffffffffffffffffffff167f8be0079c531659141344cd1fd0a4f28419497f9722a3daafe3b4186f6b6457e060405160405180910390a350565b6126f7612d60565b73ffffffffffffffffffffffffffffffffffffffff1660008054906101000a900473ffffffffffffffffffffffffffffffffffffffff1673ffffffffffffffffffffffffffffffffffffffff1614612784576040517f08c379a000000000000000000000000000000000000000000000000000000000815260040161277b906134e3565b60405180910390fd5b600073ffffffffffffffffffffffffffffffffffffffff168173ffffffffffffffffffffffffffffffffffffffff1614156127f4576040517f08c379a00000000000000000000000000000000000000000000000000000000081526004016127eb906133e3565b60405180910390fd5b8073ffffffffffffffffffffffffffffffffffffffff1660008054906101000a900473ffffffffffffffffffffffffffffffffffffffff1673ffffffffffffffffffffffffffffffffffffffff167f8be0079c531659141344cd1fd0a4f28419497f9722a3daafe3b4186f6b6457e060405160405180910390a3806000806101000a81548173ffffffffffffffffffffffffffffffffffffffff021916908373ffffffffffffffffffffffffffffffffffffffff16021790555050565b6000600760009054906101000a900473ffffffffffffffffffffffffffffffffffffffff1673ffffffffffffffffffffffffffffffffffffffff1663dd62ed3e33306040518363ffffffff1660e01b81526004016129109291906132da565b60206040518083038186803b15801561292857600080fd5b505afa15801561293c573d6000803e3d6000fd5b505050506040513d601f19601f820116820180604052508101906129609190612e37565b116129a0576040517f08c379a0000000000000000000000000000000000000000000000000000000008152600401612997906134c3565b60405180910390fd5b8042600460008381526020019081526020016000206004015411156129fa576040517f08c379a00000000000000000000000000000000000000000000000000000000081526004016129f190613383565b60405180910390fd5b60006004600084815260200190815260200160002090508060030154816002015410158015612a3157508060010154816000015410155b612a70576040517f08c379a0000000000000000000000000000000000000000000000000000000008152600401612a67906133a3565b60405180910390fd5b60008160090160003373ffffffffffffffffffffffffffffffffffffffff1673ffffffffffffffffffffffffffffffffffffffff1681526020019081526020016000205490506001811415612afa576040517f08c379a0000000000000000000000000000000000000000000000000000000008152600401612af190613483565b60405180910390fd5b6000811415612b3e576040517f08c379a0000000000000000000000000000000000000000000000000000000008152600401612b35906133c3565b60405180910390fd5b80600760009054906101000a900473ffffffffffffffffffffffffffffffffffffffff1673ffffffffffffffffffffffffffffffffffffffff166370a08231306040518263ffffffff1660e01b8152600401612b9a91906132bf565b60206040518083038186803b158015612bb257600080fd5b505afa158015612bc6573d6000803e3d6000fd5b505050506040513d601f19601f82011682018060405250810190612bea9190612e37565b1015612c2b576040517f08c379a0000000000000000000000000000000000000000000000000000000008152600401612c2290613423565b60405180910390fd5b600760009054906101000a900473ffffffffffffffffffffffffffffffffffffffff1673ffffffffffffffffffffffffffffffffffffffff1663a9059cbb33836040518363ffffffff1660e01b8152600401612c8892919061333a565b602060405180830381600087803b158015612ca257600080fd5b505af1158015612cb6573d6000803e3d6000fd5b505050506040513d601f19601f82011682018060405250810190612cda9190612de5565b612d0d577f4e487b7100000000000000000000000000000000000000000000000000000000600052600160045260246000fd5b60018260090160003373ffffffffffffffffffffffffffffffffffffffff1673ffffffffffffffffffffffffffffffffffffffff1681526020019081526020016000208190555050505050565b60035481565b600033905090565b600081359050612d7781613d98565b92915050565b600081519050612d8c81613daf565b92915050565b600081359050612da181613dc6565b92915050565b600081519050612db681613dc6565b92915050565b600060208284031215612dce57600080fd5b6000612ddc84828501612d68565b91505092915050565b600060208284031215612df757600080fd5b6000612e0584828501612d7d565b91505092915050565b600060208284031215612e2057600080fd5b6000612e2e84828501612d92565b91505092915050565b600060208284031215612e4957600080fd5b6000612e5784828501612da7565b91505092915050565b60008060408385031215612e7357600080fd5b6000612e8185828601612d92565b9250506020612e9285828601612d68565b9150509250929050565b60008060408385031215612eaf57600080fd5b6000612ebd85828601612d92565b9250506020612ece85828601612d92565b9150509250929050565b600080600060608486031215612eed57600080fd5b6000612efb86828701612d92565b9350506020612f0c86828701612d92565b9250506040612f1d86828701612d68565b9150509250925092565b612f308161385c565b82525050565b612f3f8161386e565b82525050565b6000612f52601483613736565b9150612f5d8261394b565b602082019050919050565b6000612f75601583613736565b9150612f8082613974565b602082019050919050565b6000612f98600e83613736565b9150612fa38261399d565b602082019050919050565b6000612fbb600d83613736565b9150612fc6826139c6565b602082019050919050565b6000612fde602683613736565b9150612fe9826139ef565b604082019050919050565b6000613001601683613736565b915061300c82613a3e565b602082019050919050565b6000613024601483613736565b915061302f82613a67565b602082019050919050565b6000613047601983613736565b915061305282613a90565b602082019050919050565b600061306a601183613736565b915061307582613ab9565b602082019050919050565b600061308d601083613736565b915061309882613ae2565b602082019050919050565b60006130b0600d83613736565b91506130bb82613b0b565b602082019050919050565b60006130d3601083613736565b91506130de82613b34565b602082019050919050565b60006130f6602083613736565b915061310182613b5d565b602082019050919050565b6000613119601583613736565b915061312482613b86565b602082019050919050565b600061313c601083613736565b915061314782613baf565b602082019050919050565b600061315f600d83613736565b915061316a82613bd8565b602082019050919050565b6000613182601183613736565b915061318d82613c01565b602082019050919050565b60006131a5601683613736565b91506131b082613c2a565b602082019050919050565b60006131c8601f83613736565b91506131d382613c53565b602082019050919050565b60006131eb601283613736565b91506131f682613c7c565b602082019050919050565b600061320e601383613736565b915061321982613ca5565b602082019050919050565b6000613231602383613736565b915061323c82613cce565b604082019050919050565b6000613254601583613736565b915061325f82613d1d565b602082019050919050565b6000613277601283613736565b915061328282613d46565b602082019050919050565b600061329a601283613736565b91506132a582613d6f565b602082019050919050565b6132b98161389a565b82525050565b60006020820190506132d46000830184612f27565b92915050565b60006040820190506132ef6000830185612f27565b6132fc6020830184612f27565b9392505050565b60006060820190506133186000830186612f27565b6133256020830185612f27565b61333260408301846132b0565b949350505050565b600060408201905061334f6000830185612f27565b61335c60208301846132b0565b9392505050565b6000602082019050818103600083015261337c81612f45565b9050919050565b6000602082019050818103600083015261339c81612f68565b9050919050565b600060208201905081810360008301526133bc81612f8b565b9050919050565b600060208201905081810360008301526133dc81612fae565b9050919050565b600060208201905081810360008301526133fc81612fd1565b9050919050565b6000602082019050818103600083015261341c81612ff4565b9050919050565b6000602082019050818103600083015261343c81613017565b9050919050565b6000602082019050818103600083015261345c8161303a565b9050919050565b6000602082019050818103600083015261347c8161305d565b9050919050565b6000602082019050818103600083015261349c81613080565b9050919050565b600060208201905081810360008301526134bc816130a3565b9050919050565b600060208201905081810360008301526134dc816130c6565b9050919050565b600060208201905081810360008301526134fc816130e9565b9050919050565b6000602082019050818103600083015261351c8161310c565b9050919050565b6000602082019050818103600083015261353c8161312f565b9050919050565b6000602082019050818103600083015261355c81613152565b9050919050565b6000602082019050818103600083015261357c81613175565b9050919050565b6000602082019050818103600083015261359c81613198565b9050919050565b600060208201905081810360008301526135bc816131bb565b9050919050565b600060208201905081810360008301526135dc816131de565b9050919050565b600060208201905081810360008301526135fc81613201565b9050919050565b6000602082019050818103600083015261361c81613224565b9050919050565b6000602082019050818103600083015261363c81613247565b9050919050565b6000602082019050818103600083015261365c8161326a565b9050919050565b6000602082019050818103600083015261367c8161328d565b9050919050565b600060208201905061369860008301846132b0565b92915050565b60006060820190506136b360008301866132b0565b6136c060208301856132b0565b6136cd60408301846132b0565b949350505050565b600060c0820190506136ea60008301896132b0565b6136f760208301886132b0565b61370460408301876132b0565b61371160608301866132b0565b61371e60808301856132b0565b61372b60a0830184612f36565b979650505050505050565b600082825260208201905092915050565b60006137528261389a565b915061375d8361389a565b9250827fffffffffffffffffffffffffffffffffffffffffffffffffffffffffffffffff03821115613792576137916138ed565b5b828201905092915050565b60006137a88261389a565b91506137b38361389a565b9250826137c3576137c261391c565b5b828204905092915050565b60006137d98261389a565b91506137e48361389a565b9250817fffffffffffffffffffffffffffffffffffffffffffffffffffffffffffffffff048311821515161561381d5761381c6138ed565b5b828202905092915050565b60006138338261389a565b915061383e8361389a565b925082821015613851576138506138ed565b5b828203905092915050565b60006138678261387a565b9050919050565b60008115159050919050565b600073ffffffffffffffffffffffffffffffffffffffff82169050919050565b6000819050919050565b60006138af8261389a565b91507fffffffffffffffffffffffffffffffffffffffffffffffffffffffffffffffff8214156138e2576138e16138ed565b5b600182019050919050565b7f4e487b7100000000000000000000000000000000000000000000000000000000600052601160045260246000fd5b7f4e487b7100000000000000000000000000000000000000000000000000000000600052601260045260246000fd5b7f4d494e5f4d494e555445535f5245515549524544000000000000000000000000600082015250565b7f444541444c494e455f4e4f545f45584345454445440000000000000000000000600082015250565b7f56414c49445f50524f504f53414c000000000000000000000000000000000000600082015250565b7f4449445f4e4f545f524546455200000000000000000000000000000000000000600082015250565b7f4f776e61626c653a206e6577206f776e657220697320746865207a65726f206160008201527f6464726573730000000000000000000000000000000000000000000000000000602082015250565b7f4143544956455f50524f504f53414c5f45584953545300000000000000000000600082015250565b7f4e4f545f454e4f5547485f44414f5f46554e4453000000000000000000000000600082015250565b7f50524f504f53414c5f414c52454144595f455845435554454400000000000000600082015250565b7f444541444c494e455f4558434545444544000000000000000000000000000000600082015250565b7f414c52454144595f574954484452455700000000000000000000000000000000600082015250565b7f414c52454144595f564f54454400000000000000000000000000000000000000600082015250565b7f4e4f545f415f44414f5f4d454d42455200000000000000000000000000000000600082015250565b7f4f776e61626c653a2063616c6c6572206973206e6f7420746865206f776e6572600082015250565b7f564f5445525f494e4445585f4e4f545f464f554e440000000000000000000000600082015250565b7f4e4f545f454e4f5547485f564f54455300000000000000000000000000000000600082015250565b7f4449445f4e4f545f564f54454400000000000000000000000000000000000000600082015250565b7f4e4f545f454e4f5547485f544f4b454e53000000000000000000000000000000600082015250565b7f564f5445525f544f4b454e535f4e4f545f464f554e4400000000000000000000600082015250565b7f436f6e7472616374206973206c6f636b656420756e74696c2037206461797300600082015250565b7f4e4f545f454e4f5547485f42414c414e43450000000000000000000000000000600082015250565b7f564f5445525f5245465f4e4f545f464f554e4400000000000000000000000000600082015250565b7f596f7520646f6e27742068617665207065726d697373696f6e20746f20756e6c60008201527f6f636b0000000000000000000000000000000000000000000000000000000000602082015250565b7f564f5445525f564f5445535f4e4f545f464f554e440000000000000000000000600082015250565b7f4d494e5f564f5445535f52455155495245440000000000000000000000000000600082015250565b7f494e56414c49445f564f54455f434f554e540000000000000000000000000000600082015250565b613da18161385c565b8114613dac57600080fd5b50565b613db88161386e565b8114613dc357600080fd5b50565b613dcf8161389a565b8114613dda57600080fd5b5056fea2646970667358221220b8562385f0a6c143db0ead2613066093f4be34c531ec24b009fbc6d9b11461c164736f6c63430008040033",
  "linkReferences": {},
  "deployedLinkReferences": {}
}