{
  "_format": "hh-sol-artifact-1",
  "contractName": "VRFv2Consumer",
  "sourceName": "contracts/VRF.sol",
  "abi": [
    {
      "inputs": [],
      "stateMutability": "nonpayable",
      "type": "constructor"
    },
    {
      "inputs": [
        {
          "internalType": "address",
          "name": "have",
          "type": "address"
        },
        {
          "internalType": "address",
          "name": "want",
          "type": "address"
        }
      ],
      "name": "OnlyCoordinatorCanFulfill",
      "type": "error"
    },
    {
      "inputs": [
        {
          "internalType": "uint256",
          "name": "requestId",
          "type": "uint256"
        },
        {
          "internalType": "uint256[]",
          "name": "randomWords",
          "type": "uint256[]"
        }
      ],
      "name": "rawFulfillRandomWords",
      "outputs": [],
      "stateMutability": "nonpayable",
      "type": "function"
    },
    {
      "inputs": [],
      "name": "requestRandomWords",
      "outputs": [],
      "stateMutability": "nonpayable",
      "type": "function"
    },
    {
      "inputs": [],
      "name": "requester",
      "outputs": [
        {
          "internalType": "address",
          "name": "",
          "type": "address"
        }
      ],
      "stateMutability": "view",
      "type": "function"
    },
    {
      "inputs": [
        {
          "internalType": "uint256",
          "name": "",
          "type": "uint256"
        }
      ],
      "name": "s_randomWords",
      "outputs": [
        {
          "internalType": "uint256",
          "name": "",
          "type": "uint256"
        }
      ],
      "stateMutability": "view",
      "type": "function"
    },
    {
      "inputs": [],
      "name": "s_randomWords0",
      "outputs": [
        {
          "internalType": "uint256",
          "name": "",
          "type": "uint256"
        }
      ],
      "stateMutability": "view",
      "type": "function"
    },
    {
      "inputs": [],
      "name": "s_randomWords1",
      "outputs": [
        {
          "internalType": "uint256",
          "name": "",
          "type": "uint256"
        }
      ],
      "stateMutability": "view",
      "type": "function"
    },
    {
      "inputs": [],
      "name": "s_requestId",
      "outputs": [
        {
          "internalType": "uint256",
          "name": "",
          "type": "uint256"
        }
      ],
      "stateMutability": "view",
      "type": "function"
    },
    {
      "inputs": [
        {
          "internalType": "address",
          "name": "_requester",
          "type": "address"
        }
      ],
      "name": "setRequester",
      "outputs": [],
      "stateMutability": "nonpayable",
      "type": "function"
    }
  ],
  "bytecode": "0x60a060405273ae975071be8f8ee67addbc1a82488f1c24858067600160006101000a81548173ffffffffffffffffffffffffffffffffffffffff021916908373ffffffffffffffffffffffffffffffffffffffff1602179055507f6e099d640cde6de9d40ac749b4b594126b0169747122711109c9985d47751f9360001b600255620186a0600360006101000a81548163ffffffff021916908363ffffffff16021790555060038060046101000a81548161ffff021916908361ffff1602179055506002600360066101000a81548163ffffffff021916908363ffffffff1602179055503480156100ef57600080fd5b50600160009054906101000a900473ffffffffffffffffffffffffffffffffffffffff168073ffffffffffffffffffffffffffffffffffffffff1660808173ffffffffffffffffffffffffffffffffffffffff1660601b8152505050600160009054906101000a900473ffffffffffffffffffffffffffffffffffffffff166000806101000a81548173ffffffffffffffffffffffffffffffffffffffff021916908373ffffffffffffffffffffffffffffffffffffffff16021790555033600660006101000a81548173ffffffffffffffffffffffffffffffffffffffff021916908373ffffffffffffffffffffffffffffffffffffffff16021790555033600760006101000a81548173ffffffffffffffffffffffffffffffffffffffff021916908373ffffffffffffffffffffffffffffffffffffffff160217905550604b600060146101000a81548167ffffffffffffffff021916908367ffffffffffffffff16021790555060805160601c6109f361027e600039600081816101c6015261021a01526109f36000f3fe608060405234801561001057600080fd5b50600436106100885760003560e01c8063db61e87b1161005b578063db61e87b14610101578063e0c862891461011f578063e89e106a14610129578063f6eaffc81461014757610088565b8063145220b61461008d5780631fe543e3146100ab578063227a30c5146100c7578063b61e96a5146100e3575b600080fd5b610095610177565b6040516100a2919061083a565b60405180910390f35b6100c560048036038101906100c091906106f5565b6101c4565b005b6100e160048036038101906100dc919061067a565b610284565b005b6100eb610322565b6040516100f891906107a3565b60405180910390f35b610109610348565b604051610116919061083a565b60405180910390f35b610127610395565b005b6101316104f6565b60405161013e919061083a565b60405180910390f35b610161600480360381019061015c91906106a3565b6104fc565b60405161016e919061083a565b60405180910390f35b600060046001815481106101b4577f4e487b7100000000000000000000000000000000000000000000000000000000600052603260045260246000fd5b9060005260206000200154905090565b7f000000000000000000000000000000000000000000000000000000000000000073ffffffffffffffffffffffffffffffffffffffff163373ffffffffffffffffffffffffffffffffffffffff161461027657337f00000000000000000000000000000000000000000000000000000000000000006040517f1cf993f400000000000000000000000000000000000000000000000000000000815260040161026d9291906107be565b60405180910390fd5b6102808282610520565b5050565b600660009054906101000a900473ffffffffffffffffffffffffffffffffffffffff1673ffffffffffffffffffffffffffffffffffffffff163373ffffffffffffffffffffffffffffffffffffffff16146102de57600080fd5b80600760006101000a81548173ffffffffffffffffffffffffffffffffffffffff021916908373ffffffffffffffffffffffffffffffffffffffff16021790555050565b600760009054906101000a900473ffffffffffffffffffffffffffffffffffffffff1681565b60006004600081548110610385577f4e487b7100000000000000000000000000000000000000000000000000000000600052603260045260246000fd5b9060005260206000200154905090565b600760009054906101000a900473ffffffffffffffffffffffffffffffffffffffff1673ffffffffffffffffffffffffffffffffffffffff163373ffffffffffffffffffffffffffffffffffffffff16146103ef57600080fd5b60008054906101000a900473ffffffffffffffffffffffffffffffffffffffff1673ffffffffffffffffffffffffffffffffffffffff16635d3b1d30600254600060149054906101000a900467ffffffffffffffff16600360049054906101000a900461ffff16600360009054906101000a900463ffffffff16600360069054906101000a900463ffffffff166040518663ffffffff1660e01b815260040161049c9594939291906107e7565b602060405180830381600087803b1580156104b657600080fd5b505af11580156104ca573d6000803e3d6000fd5b505050506040513d601f19601f820116820180604052508101906104ee91906106cc565b600581905550565b60055481565b6004818154811061050c57600080fd5b906000526020600020016000915090505481565b806004908051906020019061053692919061053b565b505050565b828054828255906000526020600020908101928215610577579160200282015b8281111561057657825182559160200191906001019061055b565b5b5090506105849190610588565b5090565b5b808211156105a1576000816000905550600101610589565b5090565b60006105b86105b38461087a565b610855565b905080838252602082019050828560208602820111156105d757600080fd5b60005b8581101561060757816105ed8882610650565b8452602084019350602083019250506001810190506105da565b5050509392505050565b6000813590506106208161098f565b92915050565b600082601f83011261063757600080fd5b81356106478482602086016105a5565b91505092915050565b60008135905061065f816109a6565b92915050565b600081519050610674816109a6565b92915050565b60006020828403121561068c57600080fd5b600061069a84828501610611565b91505092915050565b6000602082840312156106b557600080fd5b60006106c384828501610650565b91505092915050565b6000602082840312156106de57600080fd5b60006106ec84828501610665565b91505092915050565b6000806040838503121561070857600080fd5b600061071685828601610650565b925050602083013567ffffffffffffffff81111561073357600080fd5b61073f85828601610626565b9150509250929050565b610752816108a6565b82525050565b610761816108b8565b82525050565b610770816108c2565b82525050565b61077f816108f0565b82525050565b61078e816108fa565b82525050565b61079d8161090a565b82525050565b60006020820190506107b86000830184610749565b92915050565b60006040820190506107d36000830185610749565b6107e06020830184610749565b9392505050565b600060a0820190506107fc6000830188610758565b6108096020830187610794565b6108166040830186610767565b6108236060830185610785565b6108306080830184610785565b9695505050505050565b600060208201905061084f6000830184610776565b92915050565b600061085f610870565b905061086b828261091e565b919050565b6000604051905090565b600067ffffffffffffffff8211156108955761089461094f565b5b602082029050602081019050919050565b60006108b1826108d0565b9050919050565b6000819050919050565b600061ffff82169050919050565b600073ffffffffffffffffffffffffffffffffffffffff82169050919050565b6000819050919050565b600063ffffffff82169050919050565b600067ffffffffffffffff82169050919050565b6109278261097e565b810181811067ffffffffffffffff821117156109465761094561094f565b5b80604052505050565b7f4e487b7100000000000000000000000000000000000000000000000000000000600052604160045260246000fd5b6000601f19601f8301169050919050565b610998816108a6565b81146109a357600080fd5b50565b6109af816108f0565b81146109ba57600080fd5b5056fea264697066735822122067cc6bf4fb1836e02038810fcdb3cefbae0bfc1dd63ee921b2e0b810b68c7f2764736f6c63430008040033",
  "linkReferences": {},
  "deployedLinkReferences": {}
}