{
  "_format": "hh-sol-artifact-1",
  "contractName": "TheOpenLotto",
  "sourceName": "contracts/TheOpenLotto.sol",
  "abi": [
    {
      "inputs": [
        {
          "internalType": "address",
          "name": "_LottoERC20",
          "type": "address"
        },
        {
          "internalType": "address",
          "name": "_resolver",
          "type": "address"
        }
      ],
      "stateMutability": "nonpayable",
      "type": "constructor"
    },
    {
      "anonymous": false,
      "inputs": [
        {
          "indexed": true,
          "internalType": "uint256",
          "name": "_proposalIndex",
          "type": "uint256"
        },
        {
          "indexed": false,
          "internalType": "bytes32",
          "name": "requestId",
          "type": "bytes32"
        }
      ],
      "name": "NewRandomRequest",
      "type": "event"
    },
    {
      "anonymous": false,
      "inputs": [
        {
          "indexed": true,
          "internalType": "address",
          "name": "previousOwner",
          "type": "address"
        },
        {
          "indexed": true,
          "internalType": "address",
          "name": "newOwner",
          "type": "address"
        }
      ],
      "name": "OwnershipTransferred",
      "type": "event"
    },
    {
      "inputs": [],
      "name": "LottoERC20",
      "outputs": [
        {
          "internalType": "address",
          "name": "",
          "type": "address"
        }
      ],
      "stateMutability": "view",
      "type": "function"
    },
    {
      "inputs": [],
      "name": "RANDOM_RESOLVER",
      "outputs": [
        {
          "internalType": "address",
          "name": "",
          "type": "address"
        }
      ],
      "stateMutability": "view",
      "type": "function"
    },
    {
      "inputs": [],
      "name": "emergencyWithdraw",
      "outputs": [],
      "stateMutability": "nonpayable",
      "type": "function"
    },
    {
      "inputs": [
        {
          "internalType": "uint256",
          "name": "randomValue",
          "type": "uint256"
        },
        {
          "internalType": "uint256",
          "name": "n",
          "type": "uint256"
        }
      ],
      "name": "expand",
      "outputs": [
        {
          "internalType": "uint256[]",
          "name": "expandedValues",
          "type": "uint256[]"
        }
      ],
      "stateMutability": "pure",
      "type": "function"
    },
    {
      "inputs": [
        {
          "internalType": "uint256",
          "name": "",
          "type": "uint256"
        }
      ],
      "name": "gameLogs",
      "outputs": [
        {
          "internalType": "uint256",
          "name": "randomResult",
          "type": "uint256"
        }
      ],
      "stateMutability": "view",
      "type": "function"
    },
    {
      "inputs": [
        {
          "internalType": "uint256",
          "name": "",
          "type": "uint256"
        }
      ],
      "name": "gameRounds",
      "outputs": [
        {
          "internalType": "uint256",
          "name": "randomRequestBlock",
          "type": "uint256"
        },
        {
          "internalType": "uint256",
          "name": "randomResultBlock",
          "type": "uint256"
        },
        {
          "internalType": "uint256",
          "name": "lockedFunds",
          "type": "uint256"
        },
        {
          "internalType": "uint256",
          "name": "amountRaised",
          "type": "uint256"
        },
        {
          "internalType": "uint256",
          "name": "votes",
          "type": "uint256"
        },
        {
          "internalType": "bytes32",
          "name": "randomRequestId",
          "type": "bytes32"
        },
        {
          "internalType": "uint8",
          "name": "lastResult",
          "type": "uint8"
        }
      ],
      "stateMutability": "view",
      "type": "function"
    },
    {
      "inputs": [],
      "name": "geUnlockTime",
      "outputs": [
        {
          "internalType": "uint256",
          "name": "",
          "type": "uint256"
        }
      ],
      "stateMutability": "view",
      "type": "function"
    },
    {
      "inputs": [
        {
          "internalType": "uint256",
          "name": "_proposalIndex",
          "type": "uint256"
        },
        {
          "internalType": "uint256",
          "name": "_votePos",
          "type": "uint256"
        }
      ],
      "name": "getVoteScratchedNumber",
      "outputs": [
        {
          "internalType": "uint256",
          "name": "",
          "type": "uint256"
        }
      ],
      "stateMutability": "view",
      "type": "function"
    },
    {
      "inputs": [
        {
          "internalType": "uint256",
          "name": "_proposalIndex",
          "type": "uint256"
        },
        {
          "internalType": "uint256",
          "name": "_winnerIndex",
          "type": "uint256"
        }
      ],
      "name": "getWinner",
      "outputs": [
        {
          "internalType": "uint256",
          "name": "",
          "type": "uint256"
        }
      ],
      "stateMutability": "view",
      "type": "function"
    },
    {
      "inputs": [
        {
          "internalType": "uint256",
          "name": "_proposalIndex",
          "type": "uint256"
        },
        {
          "internalType": "uint256",
          "name": "_votePos",
          "type": "uint256"
        }
      ],
      "name": "getWonAmount",
      "outputs": [
        {
          "internalType": "uint256",
          "name": "",
          "type": "uint256"
        }
      ],
      "stateMutability": "view",
      "type": "function"
    },
    {
      "inputs": [
        {
          "internalType": "uint256",
          "name": "",
          "type": "uint256"
        }
      ],
      "name": "hasRequestedRandom",
      "outputs": [
        {
          "internalType": "bool",
          "name": "",
          "type": "bool"
        }
      ],
      "stateMutability": "view",
      "type": "function"
    },
    {
      "inputs": [
        {
          "internalType": "uint256",
          "name": "time",
          "type": "uint256"
        }
      ],
      "name": "lock",
      "outputs": [],
      "stateMutability": "nonpayable",
      "type": "function"
    },
    {
      "inputs": [
        {
          "internalType": "uint256",
          "name": "_proposalIndex",
          "type": "uint256"
        },
        {
          "internalType": "uint256",
          "name": "_amount",
          "type": "uint256"
        },
        {
          "internalType": "uint256",
          "name": "_votes",
          "type": "uint256"
        }
      ],
      "name": "newRound",
      "outputs": [],
      "stateMutability": "nonpayable",
      "type": "function"
    },
    {
      "inputs": [],
      "name": "owner",
      "outputs": [
        {
          "internalType": "address",
          "name": "",
          "type": "address"
        }
      ],
      "stateMutability": "view",
      "type": "function"
    },
    {
      "inputs": [
        {
          "internalType": "uint256",
          "name": "",
          "type": "uint256"
        }
      ],
      "name": "randomRequests",
      "outputs": [
        {
          "internalType": "uint256",
          "name": "",
          "type": "uint256"
        }
      ],
      "stateMutability": "view",
      "type": "function"
    },
    {
      "inputs": [
        {
          "internalType": "uint256",
          "name": "",
          "type": "uint256"
        },
        {
          "internalType": "uint256",
          "name": "",
          "type": "uint256"
        }
      ],
      "name": "redeemHistory",
      "outputs": [
        {
          "internalType": "uint256",
          "name": "",
          "type": "uint256"
        }
      ],
      "stateMutability": "view",
      "type": "function"
    },
    {
      "inputs": [],
      "name": "renounceOwnership",
      "outputs": [],
      "stateMutability": "nonpayable",
      "type": "function"
    },
    {
      "inputs": [
        {
          "internalType": "uint256",
          "name": "_proposalIndex",
          "type": "uint256"
        }
      ],
      "name": "requestResolveRound",
      "outputs": [],
      "stateMutability": "nonpayable",
      "type": "function"
    },
    {
      "inputs": [
        {
          "internalType": "uint256",
          "name": "_proposalIndex",
          "type": "uint256"
        }
      ],
      "name": "resolveBet",
      "outputs": [
        {
          "internalType": "bool",
          "name": "",
          "type": "bool"
        }
      ],
      "stateMutability": "nonpayable",
      "type": "function"
    },
    {
      "inputs": [
        {
          "internalType": "address",
          "name": "newOwner",
          "type": "address"
        }
      ],
      "name": "transferOwnership",
      "outputs": [],
      "stateMutability": "nonpayable",
      "type": "function"
    },
    {
      "inputs": [],
      "name": "unlock",
      "outputs": [],
      "stateMutability": "nonpayable",
      "type": "function"
    },
    {
      "inputs": [
        {
          "internalType": "uint256",
          "name": "_proposalIndex",
          "type": "uint256"
        },
        {
          "internalType": "uint256",
          "name": "_voteIndex",
          "type": "uint256"
        },
        {
          "internalType": "address",
          "name": "_voter",
          "type": "address"
        },
        {
          "internalType": "uint256",
          "name": "_voteDistance",
          "type": "uint256"
        }
      ],
      "name": "withdrawAll",
      "outputs": [
        {
          "internalType": "uint256",
          "name": "",
          "type": "uint256"
        }
      ],
      "stateMutability": "nonpayable",
      "type": "function"
    },
    {
      "inputs": [
        {
          "internalType": "uint256",
          "name": "_proposalIndex",
          "type": "uint256"
        },
        {
          "internalType": "uint256",
          "name": "_votePos",
          "type": "uint256"
        },
        {
          "internalType": "address",
          "name": "_voter",
          "type": "address"
        }
      ],
      "name": "withdrawAmount",
      "outputs": [
        {
          "internalType": "uint256",
          "name": "",
          "type": "uint256"
        }
      ],
      "stateMutability": "nonpayable",
      "type": "function"
    }
  ],
  "bytecode": "0x60806040523480156200001157600080fd5b506040516200336638038062003366833981810160405281019062000037919062000190565b6000620000496200017160201b60201c565b9050806000806101000a81548173ffffffffffffffffffffffffffffffffffffffff021916908373ffffffffffffffffffffffffffffffffffffffff1602179055508073ffffffffffffffffffffffffffffffffffffffff16600073ffffffffffffffffffffffffffffffffffffffff167f8be0079c531659141344cd1fd0a4f28419497f9722a3daafe3b4186f6b6457e060405160405180910390a35081600860006101000a81548173ffffffffffffffffffffffffffffffffffffffff021916908373ffffffffffffffffffffffffffffffffffffffff16021790555080600960006101000a81548173ffffffffffffffffffffffffffffffffffffffff021916908373ffffffffffffffffffffffffffffffffffffffff16021790555050506200021f565b600033905090565b6000815190506200018a8162000205565b92915050565b60008060408385031215620001a457600080fd5b6000620001b48582860162000179565b9250506020620001c78582860162000179565b9150509250929050565b6000620001de82620001e5565b9050919050565b600073ffffffffffffffffffffffffffffffffffffffff82169050919050565b6200021081620001d1565b81146200021c57600080fd5b50565b613137806200022f6000396000f3fe608060405234801561001057600080fd5b506004361061014d5760003560e01c8063715018a6116100c3578063c71bf91a1161007c578063c71bf91a146103e0578063ca067ad0146103fc578063d212dcea1461042c578063db2e21bc1461045c578063dd46706414610466578063f2fde38b146104825761014d565b8063715018a614610344578063874b3afc1461034e5780638da5cb5b1461037e578063a69df4b51461039c578063b6c52324146103a6578063c36aea47146103c45761014d565b80632ecdc14f116101155780632ecdc14f1461022457806339ff487b146102545780634c36c36e146102845780635548fcbb146102b45780635fafaf06146102e4578063673efa69146103145761014d565b806307a1aeb814610152578063122197cc146101705780631398b3cb146101a057806325f3c1bd146101d05780632b64f1d214610206575b600080fd5b61015a61049e565b60405161016791906127fd565b60405180910390f35b61018a600480360381019061018591906123d4565b6104c4565b6040516101979190612aa2565b60405180910390f35b6101ba60048036038101906101b5919061245f565b6104f6565b6040516101c79190612aa2565b60405180910390f35b6101ea60048036038101906101e59190612382565b610940565b6040516101fd9796959493929190612b0f565b60405180910390f35b61020e61098f565b60405161021b91906127fd565b60405180910390f35b61023e60048036038101906102399190612410565b6109b5565b60405161024b9190612aa2565b60405180910390f35b61026e600480360381019061026991906123d4565b610d13565b60405161027b9190612aa2565b60405180910390f35b61029e60048036038101906102999190612382565b610d6d565b6040516102ab9190612871565b60405180910390f35b6102ce60048036038101906102c99190612382565b611365565b6040516102db9190612aa2565b60405180910390f35b6102fe60048036038101906102f991906123d4565b611383565b60405161030b9190612aa2565b60405180910390f35b61032e600480360381019061032991906123d4565b6113b5565b60405161033b9190612aa2565b60405180910390f35b61034c6113dd565b005b610368600480360381019061036391906123d4565b611530565b604051610375919061284f565b60405180910390f35b610386611639565b60405161039391906127fd565b60405180910390f35b6103a4611662565b005b6103ae611836565b6040516103bb9190612aa2565b60405180910390f35b6103de60048036038101906103d99190612382565b611840565b005b6103fa60048036038101906103f591906124c2565b611ad6565b005b61041660048036038101906104119190612382565b611ca9565b6040516104239190612aa2565b60405180910390f35b61044660048036038101906104419190612382565b611cc1565b6040516104539190612871565b60405180910390f35b610464611ce1565b005b610480600480360381019061047b9190612382565b611f0d565b005b61049c60048036038101906104979190612307565b6120d4565b005b600960009054906101000a900473ffffffffffffffffffffffffffffffffffffffff1681565b600060046000848152602001908152602001600020600101600083815260200190815260200160002054905092915050565b600080610501611639565b73ffffffffffffffffffffffffffffffffffffffff1663261dc98987866040518363ffffffff1660e01b815260040161053b929190612abd565b60206040518083038186803b15801561055357600080fd5b505afa158015610567573d6000803e3d6000fd5b505050506040513d601f19601f8201168201806040525081019061058b91906123ab565b90506000610597611639565b73ffffffffffffffffffffffffffffffffffffffff16636209a58b88876040518363ffffffff1660e01b81526004016105d1929190612abd565b60206040518083038186803b1580156105e957600080fd5b505afa1580156105fd573d6000803e3d6000fd5b505050506040513d601f19601f8201168201806040525081019061062191906123ab565b9050808261062f9190612bc8565b861115610671576040517f08c379a000000000000000000000000000000000000000000000000000000000815260040161066890612a62565b60405180910390fd5b600084116106b4576040517f08c379a00000000000000000000000000000000000000000000000000000000081526004016106ab90612982565b60405180910390fd5b80826106c09190612bc8565b84876106cc9190612bc8565b111561070d576040517f08c379a000000000000000000000000000000000000000000000000000000000815260040161070490612a82565b60405180910390fd5b80841015610719578390505b6000805b8281101561083c576000600460008b815260200190815260200160002060020160008a8461074b9190612bc8565b815260200190815260200160002054905060018114156107a0576040517f08c379a000000000000000000000000000000000000000000000000000000000815260040161079790612902565b60405180910390fd5b6000600460008c815260200190815260200160002060020160008b856107c69190612bc8565b815260200190815260200160002054905060018111156108275780846107ec9190612bc8565b93506001600460008d815260200190815260200160002060020160008c866108149190612bc8565b8152602001908152602001600020819055505b5050808061083490612d1a565b91505061071d565b50600081111561093257600860009054906101000a900473ffffffffffffffffffffffffffffffffffffffff1673ffffffffffffffffffffffffffffffffffffffff166323b872dd61088c611639565b88846040518463ffffffff1660e01b81526004016108ac93929190612818565b602060405180830381600087803b1580156108c657600080fd5b505af11580156108da573d6000803e3d6000fd5b505050506040513d601f19601f820116820180604052508101906108fe9190612330565b610931577f4e487b7100000000000000000000000000000000000000000000000000000000600052600160045260246000fd5b5b809350505050949350505050565b60036020528060005260406000206000915090508060000154908060010154908060020154908060030154908060040154908060050154908060060160009054906101000a900460ff16905087565b600860009054906101000a900473ffffffffffffffffffffffffffffffffffffffff1681565b6000806109c0611639565b73ffffffffffffffffffffffffffffffffffffffff1663261dc98986856040518363ffffffff1660e01b81526004016109fa929190612abd565b60206040518083038186803b158015610a1257600080fd5b505afa158015610a26573d6000803e3d6000fd5b505050506040513d601f19601f82011682018060405250810190610a4a91906123ab565b90506000610a56611639565b73ffffffffffffffffffffffffffffffffffffffff16636209a58b87866040518363ffffffff1660e01b8152600401610a90929190612abd565b60206040518083038186803b158015610aa857600080fd5b505afa158015610abc573d6000803e3d6000fd5b505050506040513d601f19601f82011682018060405250810190610ae091906123ab565b9050818510158015610afd57508082610af99190612bc8565b8511155b610b3c576040517f08c379a0000000000000000000000000000000000000000000000000000000008152600401610b33906129c2565b60405180910390fd5b600060046000888152602001908152602001600020600201600087815260200190815260200160002054905060008111610bab576040517f08c379a0000000000000000000000000000000000000000000000000000000008152600401610ba2906128c2565b60405180910390fd5b60018111610bee576040517f08c379a0000000000000000000000000000000000000000000000000000000008152600401610be590612902565b60405180910390fd5b600860009054906101000a900473ffffffffffffffffffffffffffffffffffffffff1673ffffffffffffffffffffffffffffffffffffffff166323b872dd610c34611639565b87846040518463ffffffff1660e01b8152600401610c5493929190612818565b602060405180830381600087803b158015610c6e57600080fd5b505af1158015610c82573d6000803e3d6000fd5b505050506040513d601f19601f82011682018060405250810190610ca69190612330565b610cd9577f4e487b7100000000000000000000000000000000000000000000000000000000600052600160045260246000fd5b6001600460008981526020019081526020016000206002016000888152602001908152602001600020819055508093505050509392505050565b6000600460008481526020019081526020016000206003018260538110610d63577f4e487b7100000000000000000000000000000000000000000000000000000000600052603260045260246000fd5b0154905092915050565b600080600360008481526020019081526020016000206003015411610dc7576040517f08c379a0000000000000000000000000000000000000000000000000000000008152600401610dbe90612922565b60405180910390fd5b600060036000848152602001908152602001600020600501549050600960009054906101000a900473ffffffffffffffffffffffffffffffffffffffff1673ffffffffffffffffffffffffffffffffffffffff1663e89e106a6040518163ffffffff1660e01b8152600401602060405180830381600087803b158015610e4c57600080fd5b505af1158015610e60573d6000803e3d6000fd5b505050506040513d601f19601f82011682018060405250810190610e849190612359565b8114610ec5576040517f08c379a0000000000000000000000000000000000000000000000000000000008152600401610ebc90612a02565b60405180910390fd5b6000600660008581526020019081526020016000205414610f1b576040517f08c379a0000000000000000000000000000000000000000000000000000000008152600401610f1290612a22565b60405180910390fd5b436003600085815260200190815260200160002060010181905550600960009054906101000a900473ffffffffffffffffffffffffffffffffffffffff1673ffffffffffffffffffffffffffffffffffffffff1663db61e87b6040518163ffffffff1660e01b8152600401602060405180830381600087803b158015610fa057600080fd5b505af1158015610fb4573d6000803e3d6000fd5b505050506040513d601f19601f82011682018060405250810190610fd891906123ab565b6006600085815260200190815260200160002081905550600960009054906101000a900473ffffffffffffffffffffffffffffffffffffffff1673ffffffffffffffffffffffffffffffffffffffff1663f6eaffc860006040518263ffffffff1660e01b815260040161104b91906128a7565b602060405180830381600087803b15801561106557600080fd5b505af1158015611079573d6000803e3d6000fd5b505050506040513d601f19601f8201168201806040525081019061109d91906123ab565b600460008581526020019081526020016000206000018190555060006110da60046000868152602001908152602001600020600001546053611530565b9050600080600090505b605381101561135257600060016003600089815260200190815260200160002060040154858481518110611141577f4e487b7100000000000000000000000000000000000000000000000000000000600052603260045260246000fd5b60200260200101516111539190612d63565b61115d9190612bc8565b9050806004600089815260200190815260200160002060030183605381106111ae577f4e487b7100000000000000000000000000000000000000000000000000000000600052603260045260246000fd5b018190555060008214156111f257600a6002600360008a8152602001908152602001600020600301546111e19190612c4f565b6111eb9190612c1e565b92506112e6565b60038210156112315760646005600360008a8152602001908152602001600020600301546112209190612c4f565b61122a9190612c1e565b92506112e5565b600d8210156112705760646001600360008a81526020019081526020016000206003015461125f9190612c4f565b6112699190612c1e565b92506112e4565b60218210156112b0576103e86005600360008a81526020019081526020016000206003015461129f9190612c4f565b6112a99190612c1e565b92506112e3565b6103e86002600360008a8152602001908152602001600020600301546112d69190612c4f565b6112e09190612c1e565b92505b5b5b5b8260046000898152602001908152602001600020600201600083815260200190815260200160002081905550816004600089815260200190815260200160002060010160008381526020019081526020016000208190555050808061134a90612d1a565b9150506110e4565b5060006001905080945050505050919050565b60046020528060005260406000206000915090508060000154905081565b600060046000848152602001908152602001600020600201600083815260200190815260200160002054905092915050565b600560205281600052604060002081600681106113d157600080fd5b01600091509150505481565b6113e5612296565b73ffffffffffffffffffffffffffffffffffffffff1660008054906101000a900473ffffffffffffffffffffffffffffffffffffffff1673ffffffffffffffffffffffffffffffffffffffff1614611472576040517f08c379a000000000000000000000000000000000000000000000000000000000815260040161146990612962565b60405180910390fd5b600073ffffffffffffffffffffffffffffffffffffffff1660008054906101000a900473ffffffffffffffffffffffffffffffffffffffff1673ffffffffffffffffffffffffffffffffffffffff167f8be0079c531659141344cd1fd0a4f28419497f9722a3daafe3b4186f6b6457e060405160405180910390a360008060006101000a81548173ffffffffffffffffffffffffffffffffffffffff021916908373ffffffffffffffffffffffffffffffffffffffff160217905550565b60608167ffffffffffffffff811115611572577f4e487b7100000000000000000000000000000000000000000000000000000000600052604160045260246000fd5b6040519080825280602002602001820160405280156115a05781602001602082028036833780820191505090505b50905060005b828110156116325783816040516020016115c1929190612ae6565b6040516020818303038152906040528051906020012060001c828281518110611613577f4e487b7100000000000000000000000000000000000000000000000000000000600052603260045260246000fd5b602002602001018181525050808061162a90612d1a565b9150506115a6565b5092915050565b60008060009054906101000a900473ffffffffffffffffffffffffffffffffffffffff16905090565b3373ffffffffffffffffffffffffffffffffffffffff16600160009054906101000a900473ffffffffffffffffffffffffffffffffffffffff1673ffffffffffffffffffffffffffffffffffffffff16146116f2576040517f08c379a00000000000000000000000000000000000000000000000000000000081526004016116e990612a42565b60405180910390fd5b6002544211611736576040517f08c379a000000000000000000000000000000000000000000000000000000000815260040161172d906129e2565b60405180910390fd5b600160009054906101000a900473ffffffffffffffffffffffffffffffffffffffff1673ffffffffffffffffffffffffffffffffffffffff1660008054906101000a900473ffffffffffffffffffffffffffffffffffffffff1673ffffffffffffffffffffffffffffffffffffffff167f8be0079c531659141344cd1fd0a4f28419497f9722a3daafe3b4186f6b6457e060405160405180910390a3600160009054906101000a900473ffffffffffffffffffffffffffffffffffffffff166000806101000a81548173ffffffffffffffffffffffffffffffffffffffff021916908373ffffffffffffffffffffffffffffffffffffffff160217905550565b6000600254905090565b6000600360008381526020019081526020016000206003015411611899576040517f08c379a000000000000000000000000000000000000000000000000000000000815260040161189090612922565b60405180910390fd5b600015156007600083815260200190815260200160002060009054906101000a900460ff16151514611900576040517f08c379a00000000000000000000000000000000000000000000000000000000081526004016118f790612942565b60405180910390fd5b60016007600083815260200190815260200160002060006101000a81548160ff021916908315150217905550600960009054906101000a900473ffffffffffffffffffffffffffffffffffffffff1673ffffffffffffffffffffffffffffffffffffffff1663e0c862896040518163ffffffff1660e01b8152600401600060405180830381600087803b15801561199657600080fd5b505af11580156119aa573d6000803e3d6000fd5b50505050600960009054906101000a900473ffffffffffffffffffffffffffffffffffffffff1673ffffffffffffffffffffffffffffffffffffffff1663e89e106a6040518163ffffffff1660e01b8152600401602060405180830381600087803b158015611a1857600080fd5b505af1158015611a2c573d6000803e3d6000fd5b505050506040513d601f19601f82011682018060405250810190611a509190612359565b6003600083815260200190815260200160002060050181905550436003600083815260200190815260200160002060000181905550807fbd51e5a352fab6e096017c2be9f26b900b8615c0353bc652a3f429c6e56c4e126003600084815260200190815260200160002060050154604051611acb919061288c565b60405180910390a250565b611ade612296565b73ffffffffffffffffffffffffffffffffffffffff1660008054906101000a900473ffffffffffffffffffffffffffffffffffffffff1673ffffffffffffffffffffffffffffffffffffffff1614611b6b576040517f08c379a0000000000000000000000000000000000000000000000000000000008152600401611b6290612962565b60405180910390fd5b6007600084815260200190815260200160002060009054906101000a900460ff1615611bcc576040517f08c379a0000000000000000000000000000000000000000000000000000000008152600401611bc390612942565b60405180910390fd5b6000600360008581526020019081526020016000206003015414611c25576040517f08c379a0000000000000000000000000000000000000000000000000000000008152600401611c1c906129a2565b60405180910390fd5b816003600085815260200190815260200160002060030181905550600a60076003600086815260200190815260200160002060030154611c659190612c4f565b611c6f9190612c1e565b6003600085815260200190815260200160002060020181905550806003600085815260200190815260200160002060040181905550505050565b60066020528060005260406000206000915090505481565b60076020528060005260406000206000915054906101000a900460ff1681565b611ce9612296565b73ffffffffffffffffffffffffffffffffffffffff1660008054906101000a900473ffffffffffffffffffffffffffffffffffffffff1673ffffffffffffffffffffffffffffffffffffffff1614611d76576040517f08c379a0000000000000000000000000000000000000000000000000000000008152600401611d6d90612962565b60405180910390fd5b600860009054906101000a900473ffffffffffffffffffffffffffffffffffffffff1673ffffffffffffffffffffffffffffffffffffffff166323b872dd30611dbd611639565b600860009054906101000a900473ffffffffffffffffffffffffffffffffffffffff1673ffffffffffffffffffffffffffffffffffffffff166370a08231306040518263ffffffff1660e01b8152600401611e1891906127fd565b60206040518083038186803b158015611e3057600080fd5b505afa158015611e44573d6000803e3d6000fd5b505050506040513d601f19601f82011682018060405250810190611e6891906123ab565b6040518463ffffffff1660e01b8152600401611e8693929190612818565b602060405180830381600087803b158015611ea057600080fd5b505af1158015611eb4573d6000803e3d6000fd5b505050506040513d601f19601f82011682018060405250810190611ed89190612330565b611f0b577f4e487b7100000000000000000000000000000000000000000000000000000000600052600160045260246000fd5b565b611f15612296565b73ffffffffffffffffffffffffffffffffffffffff1660008054906101000a900473ffffffffffffffffffffffffffffffffffffffff1673ffffffffffffffffffffffffffffffffffffffff1614611fa2576040517f08c379a0000000000000000000000000000000000000000000000000000000008152600401611f9990612962565b60405180910390fd5b60008054906101000a900473ffffffffffffffffffffffffffffffffffffffff16600160006101000a81548173ffffffffffffffffffffffffffffffffffffffff021916908373ffffffffffffffffffffffffffffffffffffffff16021790555060008060006101000a81548173ffffffffffffffffffffffffffffffffffffffff021916908373ffffffffffffffffffffffffffffffffffffffff16021790555080426120509190612bc8565b600281905550600073ffffffffffffffffffffffffffffffffffffffff1660008054906101000a900473ffffffffffffffffffffffffffffffffffffffff1673ffffffffffffffffffffffffffffffffffffffff167f8be0079c531659141344cd1fd0a4f28419497f9722a3daafe3b4186f6b6457e060405160405180910390a350565b6120dc612296565b73ffffffffffffffffffffffffffffffffffffffff1660008054906101000a900473ffffffffffffffffffffffffffffffffffffffff1673ffffffffffffffffffffffffffffffffffffffff1614612169576040517f08c379a000000000000000000000000000000000000000000000000000000000815260040161216090612962565b60405180910390fd5b600073ffffffffffffffffffffffffffffffffffffffff168173ffffffffffffffffffffffffffffffffffffffff1614156121d9576040517f08c379a00000000000000000000000000000000000000000000000000000000081526004016121d0906128e2565b60405180910390fd5b8073ffffffffffffffffffffffffffffffffffffffff1660008054906101000a900473ffffffffffffffffffffffffffffffffffffffff1673ffffffffffffffffffffffffffffffffffffffff167f8be0079c531659141344cd1fd0a4f28419497f9722a3daafe3b4186f6b6457e060405160405180910390a3806000806101000a81548173ffffffffffffffffffffffffffffffffffffffff021916908373ffffffffffffffffffffffffffffffffffffffff16021790555050565b600033905090565b6000813590506122ad816130a5565b92915050565b6000815190506122c2816130bc565b92915050565b6000815190506122d7816130d3565b92915050565b6000813590506122ec816130ea565b92915050565b600081519050612301816130ea565b92915050565b60006020828403121561231957600080fd5b60006123278482850161229e565b91505092915050565b60006020828403121561234257600080fd5b6000612350848285016122b3565b91505092915050565b60006020828403121561236b57600080fd5b6000612379848285016122c8565b91505092915050565b60006020828403121561239457600080fd5b60006123a2848285016122dd565b91505092915050565b6000602082840312156123bd57600080fd5b60006123cb848285016122f2565b91505092915050565b600080604083850312156123e757600080fd5b60006123f5858286016122dd565b9250506020612406858286016122dd565b9150509250929050565b60008060006060848603121561242557600080fd5b6000612433868287016122dd565b9350506020612444868287016122dd565b92505060406124558682870161229e565b9150509250925092565b6000806000806080858703121561247557600080fd5b6000612483878288016122dd565b9450506020612494878288016122dd565b93505060406124a58782880161229e565b92505060606124b6878288016122dd565b91505092959194509250565b6000806000606084860312156124d757600080fd5b60006124e5868287016122dd565b93505060206124f6868287016122dd565b9250506040612507868287016122dd565b9150509250925092565b600061251d83836127d0565b60208301905092915050565b61253281612ca9565b82525050565b600061254382612b8e565b61254d8185612ba6565b935061255883612b7e565b8060005b838110156125895781516125708882612511565b975061257b83612b99565b92505060018101905061255c565b5085935050505092915050565b61259f81612cbb565b82525050565b6125ae81612cc7565b82525050565b6125bd81612d08565b82525050565b60006125d0600b83612bb7565b91506125db82612df2565b602082019050919050565b60006125f3602683612bb7565b91506125fe82612e1b565b604082019050919050565b6000612616601083612bb7565b915061262182612e6a565b602082019050919050565b6000612639601583612bb7565b915061264482612e93565b602082019050919050565b600061265c601583612bb7565b915061266782612ebc565b602082019050919050565b600061267f602083612bb7565b915061268a82612ee5565b602082019050919050565b60006126a2600c83612bb7565b91506126ad82612f0e565b602082019050919050565b60006126c5600e83612bb7565b91506126d082612f37565b602082019050919050565b60006126e8600e83612bb7565b91506126f382612f60565b602082019050919050565b600061270b601f83612bb7565b915061271682612f89565b602082019050919050565b600061272e601383612bb7565b915061273982612fb2565b602082019050919050565b6000612751601383612bb7565b915061275c82612fdb565b602082019050919050565b6000612774602383612bb7565b915061277f82613004565b604082019050919050565b6000612797600f83612bb7565b91506127a282613053565b602082019050919050565b60006127ba600f83612bb7565b91506127c58261307c565b602082019050919050565b6127d981612cf1565b82525050565b6127e881612cf1565b82525050565b6127f781612cfb565b82525050565b60006020820190506128126000830184612529565b92915050565b600060608201905061282d6000830186612529565b61283a6020830185612529565b61284760408301846127df565b949350505050565b600060208201905081810360008301526128698184612538565b905092915050565b60006020820190506128866000830184612596565b92915050565b60006020820190506128a160008301846125a5565b92915050565b60006020820190506128bc60008301846125b4565b92915050565b600060208201905081810360008301526128db816125c3565b9050919050565b600060208201905081810360008301526128fb816125e6565b9050919050565b6000602082019050818103600083015261291b81612609565b9050919050565b6000602082019050818103600083015261293b8161262c565b9050919050565b6000602082019050818103600083015261295b8161264f565b9050919050565b6000602082019050818103600083015261297b81612672565b9050919050565b6000602082019050818103600083015261299b81612695565b9050919050565b600060208201905081810360008301526129bb816126b8565b9050919050565b600060208201905081810360008301526129db816126db565b9050919050565b600060208201905081810360008301526129fb816126fe565b9050919050565b60006020820190508181036000830152612a1b81612721565b9050919050565b60006020820190508181036000830152612a3b81612744565b9050919050565b60006020820190508181036000830152612a5b81612767565b9050919050565b60006020820190508181036000830152612a7b8161278a565b9050919050565b60006020820190508181036000830152612a9b816127ad565b9050919050565b6000602082019050612ab760008301846127df565b92915050565b6000604082019050612ad260008301856127df565b612adf6020830184612529565b9392505050565b6000604082019050612afb60008301856127df565b612b0860208301846127df565b9392505050565b600060e082019050612b24600083018a6127df565b612b3160208301896127df565b612b3e60408301886127df565b612b4b60608301876127df565b612b5860808301866127df565b612b6560a08301856125a5565b612b7260c08301846127ee565b98975050505050505050565b6000819050602082019050919050565b600081519050919050565b6000602082019050919050565b600082825260208201905092915050565b600082825260208201905092915050565b6000612bd382612cf1565b9150612bde83612cf1565b9250827fffffffffffffffffffffffffffffffffffffffffffffffffffffffffffffffff03821115612c1357612c12612d94565b5b828201905092915050565b6000612c2982612cf1565b9150612c3483612cf1565b925082612c4457612c43612dc3565b5b828204905092915050565b6000612c5a82612cf1565b9150612c6583612cf1565b9250817fffffffffffffffffffffffffffffffffffffffffffffffffffffffffffffffff0483118215151615612c9e57612c9d612d94565b5b828202905092915050565b6000612cb482612cd1565b9050919050565b60008115159050919050565b6000819050919050565b600073ffffffffffffffffffffffffffffffffffffffff82169050919050565b6000819050919050565b600060ff82169050919050565b6000612d1382612cf1565b9050919050565b6000612d2582612cf1565b91507fffffffffffffffffffffffffffffffffffffffffffffffffffffffffffffffff821415612d5857612d57612d94565b5b600182019050919050565b6000612d6e82612cf1565b9150612d7983612cf1565b925082612d8957612d88612dc3565b5b828206905092915050565b7f4e487b7100000000000000000000000000000000000000000000000000000000600052601160045260246000fd5b7f4e487b7100000000000000000000000000000000000000000000000000000000600052601260045260246000fd5b7f494e56414c49445f57494e000000000000000000000000000000000000000000600082015250565b7f4f776e61626c653a206e6577206f776e657220697320746865207a65726f206160008201527f6464726573730000000000000000000000000000000000000000000000000000602082015250565b7f414c52454144595f52454445454d454400000000000000000000000000000000600082015250565b7f50524f504f53414c5f444f45534e545f45584953540000000000000000000000600082015250565b7f52414e444f4d5f524551554553545f4558495354530000000000000000000000600082015250565b7f4f776e61626c653a2063616c6c6572206973206e6f7420746865206f776e6572600082015250565b7f4d494e5f44495354414e43450000000000000000000000000000000000000000600082015250565b7f50524f504f53414c5f4558495354000000000000000000000000000000000000600082015250565b7f4e4f545f564f54455f4f574e4552000000000000000000000000000000000000600082015250565b7f436f6e7472616374206973206c6f636b656420756e74696c2037206461797300600082015250565b7f524551554553545f4e4f545f43555252454e5400000000000000000000000000600082015250565b7f524553554c545f414c52454144595f444f4e4500000000000000000000000000600082015250565b7f596f7520646f6e27742068617665207065726d697373696f6e20746f20756e6c60008201527f6f636b0000000000000000000000000000000000000000000000000000000000602082015250565b7f4e4f545f56414c49445f494e4445580000000000000000000000000000000000600082015250565b7f4f55545f4f465f424f554e444152590000000000000000000000000000000000600082015250565b6130ae81612ca9565b81146130b957600080fd5b50565b6130c581612cbb565b81146130d057600080fd5b50565b6130dc81612cc7565b81146130e757600080fd5b50565b6130f381612cf1565b81146130fe57600080fd5b5056fea264697066735822122011b7e09e86b2f4ed8e372bdc31f84abc0da70eacee0dbf4d92bda4259fff65c564736f6c63430008040033",
  "linkReferences": {},
  "deployedLinkReferences": {}
}